{
  "contractName": "MasterChef",
  "abi": [
    {
      "inputs": [
        {
          "internalType": "contract EggToken",
          "name": "_egg",
          "type": "address"
        },
        {
          "internalType": "address",
          "name": "_devaddr",
          "type": "address"
        },
        {
          "internalType": "address",
          "name": "_feeAddress",
          "type": "address"
        },
        {
          "internalType": "uint256",
          "name": "_eggPerBlock",
          "type": "uint256"
        }
      ],
      "stateMutability": "nonpayable",
      "type": "constructor"
    },
    {
      "anonymous": false,
      "inputs": [
        {
          "indexed": true,
          "internalType": "address",
          "name": "user",
          "type": "address"
        },
        {
          "indexed": true,
          "internalType": "uint256",
          "name": "pid",
          "type": "uint256"
        },
        {
          "indexed": false,
          "internalType": "uint256",
          "name": "amount",
          "type": "uint256"
        }
      ],
      "name": "Deposit",
      "type": "event"
    },
    {
      "anonymous": false,
      "inputs": [
        {
          "indexed": true,
          "internalType": "address",
          "name": "user",
          "type": "address"
        },
        {
          "indexed": true,
          "internalType": "uint256",
          "name": "pid",
          "type": "uint256"
        },
        {
          "indexed": false,
          "internalType": "uint256",
          "name": "amount",
          "type": "uint256"
        }
      ],
      "name": "EmergencyWithdraw",
      "type": "event"
    },
    {
      "anonymous": false,
      "inputs": [
        {
          "indexed": true,
          "internalType": "address",
          "name": "previousOwner",
          "type": "address"
        },
        {
          "indexed": true,
          "internalType": "address",
          "name": "newOwner",
          "type": "address"
        }
      ],
      "name": "OwnershipTransferred",
      "type": "event"
    },
    {
      "anonymous": false,
      "inputs": [
        {
          "indexed": true,
          "internalType": "address",
          "name": "user",
          "type": "address"
        },
        {
          "indexed": true,
          "internalType": "uint256",
          "name": "pid",
          "type": "uint256"
        },
        {
          "indexed": false,
          "internalType": "uint256",
          "name": "amount",
          "type": "uint256"
        }
      ],
      "name": "Withdraw",
      "type": "event"
    },
    {
      "inputs": [],
      "name": "BONUS_MULTIPLIER",
      "outputs": [
        {
          "internalType": "uint256",
          "name": "",
          "type": "uint256"
        }
      ],
      "stateMutability": "view",
      "type": "function"
    },
    {
      "inputs": [],
      "name": "devaddr",
      "outputs": [
        {
          "internalType": "address",
          "name": "",
          "type": "address"
        }
      ],
      "stateMutability": "view",
      "type": "function"
    },
    {
      "inputs": [],
      "name": "egg",
      "outputs": [
        {
          "internalType": "contract EggToken",
          "name": "",
          "type": "address"
        }
      ],
      "stateMutability": "view",
      "type": "function"
    },
    {
      "inputs": [],
      "name": "eggPerBlock",
      "outputs": [
        {
          "internalType": "uint256",
          "name": "",
          "type": "uint256"
        }
      ],
      "stateMutability": "view",
      "type": "function"
    },
    {
      "inputs": [],
      "name": "feeAddress",
      "outputs": [
        {
          "internalType": "address",
          "name": "",
          "type": "address"
        }
      ],
      "stateMutability": "view",
      "type": "function"
    },
    {
      "inputs": [],
      "name": "owner",
      "outputs": [
        {
          "internalType": "address",
          "name": "",
          "type": "address"
        }
      ],
      "stateMutability": "view",
      "type": "function"
    },
    {
      "inputs": [
        {
          "internalType": "uint256",
          "name": "",
          "type": "uint256"
        }
      ],
      "name": "poolInfo",
      "outputs": [
        {
          "internalType": "contract IBEP20",
          "name": "lpToken",
          "type": "address"
        },
        {
          "internalType": "uint256",
          "name": "allocPoint",
          "type": "uint256"
        },
        {
          "internalType": "uint256",
          "name": "lastRewardBlock",
          "type": "uint256"
        },
        {
          "internalType": "uint256",
          "name": "accEggPerShare",
          "type": "uint256"
        },
        {
          "internalType": "uint16",
          "name": "depositFeeBP",
          "type": "uint16"
        }
      ],
      "stateMutability": "view",
      "type": "function"
    },
    {
      "inputs": [],
      "name": "renounceOwnership",
      "outputs": [],
      "stateMutability": "nonpayable",
      "type": "function"
    },
    {
      "inputs": [],
      "name": "startBlock",
      "outputs": [
        {
          "internalType": "uint256",
          "name": "",
          "type": "uint256"
        }
      ],
      "stateMutability": "view",
      "type": "function"
    },
    {
      "inputs": [],
      "name": "totalAllocPoint",
      "outputs": [
        {
          "internalType": "uint256",
          "name": "",
          "type": "uint256"
        }
      ],
      "stateMutability": "view",
      "type": "function"
    },
    {
      "inputs": [
        {
          "internalType": "address",
          "name": "newOwner",
          "type": "address"
        }
      ],
      "name": "transferOwnership",
      "outputs": [],
      "stateMutability": "nonpayable",
      "type": "function"
    },
    {
      "inputs": [
        {
          "internalType": "uint256",
          "name": "",
          "type": "uint256"
        },
        {
          "internalType": "address",
          "name": "",
          "type": "address"
        }
      ],
      "name": "userInfo",
      "outputs": [
        {
          "internalType": "uint256",
          "name": "amount",
          "type": "uint256"
        },
        {
          "internalType": "uint256",
          "name": "rewardDebt",
          "type": "uint256"
        }
      ],
      "stateMutability": "view",
      "type": "function"
    },
    {
      "inputs": [],
      "name": "poolLength",
      "outputs": [
        {
          "internalType": "uint256",
          "name": "",
          "type": "uint256"
        }
      ],
      "stateMutability": "view",
      "type": "function"
    },
    {
      "inputs": [
        {
          "internalType": "uint256",
          "name": "_allocPoint",
          "type": "uint256"
        },
        {
          "internalType": "contract IBEP20",
          "name": "_lpToken",
          "type": "address"
        },
        {
          "internalType": "uint16",
          "name": "_depositFeeBP",
          "type": "uint16"
        },
        {
          "internalType": "bool",
          "name": "_withUpdate",
          "type": "bool"
        }
      ],
      "name": "add",
      "outputs": [],
      "stateMutability": "nonpayable",
      "type": "function"
    },
    {
      "inputs": [
        {
          "internalType": "uint256",
          "name": "_pid",
          "type": "uint256"
        },
        {
          "internalType": "uint256",
          "name": "_allocPoint",
          "type": "uint256"
        },
        {
          "internalType": "uint16",
          "name": "_depositFeeBP",
          "type": "uint16"
        },
        {
          "internalType": "bool",
          "name": "_withUpdate",
          "type": "bool"
        }
      ],
      "name": "set",
      "outputs": [],
      "stateMutability": "nonpayable",
      "type": "function"
    },
    {
      "inputs": [
        {
          "internalType": "uint256",
          "name": "_from",
          "type": "uint256"
        },
        {
          "internalType": "uint256",
          "name": "_to",
          "type": "uint256"
        }
      ],
      "name": "getMultiplier",
      "outputs": [
        {
          "internalType": "uint256",
          "name": "",
          "type": "uint256"
        }
      ],
      "stateMutability": "pure",
      "type": "function"
    },
    {
      "inputs": [
        {
          "internalType": "uint256",
          "name": "_pid",
          "type": "uint256"
        },
        {
          "internalType": "address",
          "name": "_user",
          "type": "address"
        }
      ],
      "name": "pendingEgg",
      "outputs": [
        {
          "internalType": "uint256",
          "name": "",
          "type": "uint256"
        }
      ],
      "stateMutability": "view",
      "type": "function"
    },
    {
      "inputs": [],
      "name": "massUpdatePools",
      "outputs": [],
      "stateMutability": "nonpayable",
      "type": "function"
    },
    {
      "inputs": [
        {
          "internalType": "uint256",
          "name": "_pid",
          "type": "uint256"
        }
      ],
      "name": "updatePool",
      "outputs": [],
      "stateMutability": "nonpayable",
      "type": "function"
    },
    {
      "inputs": [
        {
          "internalType": "uint256",
          "name": "_pid",
          "type": "uint256"
        },
        {
          "internalType": "uint256",
          "name": "_amount",
          "type": "uint256"
        }
      ],
      "name": "deposit",
      "outputs": [],
      "stateMutability": "nonpayable",
      "type": "function"
    },
    {
      "inputs": [
        {
          "internalType": "uint256",
          "name": "_pid",
          "type": "uint256"
        },
        {
          "internalType": "uint256",
          "name": "_amount",
          "type": "uint256"
        }
      ],
      "name": "withdraw",
      "outputs": [],
      "stateMutability": "nonpayable",
      "type": "function"
    },
    {
      "inputs": [
        {
          "internalType": "uint256",
          "name": "_pid",
          "type": "uint256"
        }
      ],
      "name": "emergencyWithdraw",
      "outputs": [],
      "stateMutability": "nonpayable",
      "type": "function"
    },
    {
      "inputs": [
        {
          "internalType": "address",
          "name": "_devaddr",
          "type": "address"
        }
      ],
      "name": "dev",
      "outputs": [],
      "stateMutability": "nonpayable",
      "type": "function"
    },
    {
      "inputs": [
        {
          "internalType": "address",
          "name": "_feeAddress",
          "type": "address"
        }
      ],
      "name": "setFeeAddress",
      "outputs": [],
      "stateMutability": "nonpayable",
      "type": "function"
    },
    {
      "inputs": [
        {
          "internalType": "uint256",
          "name": "_eggPerBlock",
          "type": "uint256"
        }
      ],
      "name": "updateEmissionRate",
      "outputs": [],
      "stateMutability": "nonpayable",
      "type": "function"
    }
  ],
  "bytecode": "0x608060405260006007553480156200001657600080fd5b50604051620030b7380380620030b783398181016040528101906200003c9190620002ed565b6200005c620000506200013760201b60201c565b6200013f60201b60201c565b83600160006101000a81548173ffffffffffffffffffffffffffffffffffffffff021916908373ffffffffffffffffffffffffffffffffffffffff16021790555082600260006101000a81548173ffffffffffffffffffffffffffffffffffffffff021916908373ffffffffffffffffffffffffffffffffffffffff16021790555081600460006101000a81548173ffffffffffffffffffffffffffffffffffffffff021916908373ffffffffffffffffffffffffffffffffffffffff1602179055508060038190555043600881905550505050506200035f565b600033905090565b60008060009054906101000a900473ffffffffffffffffffffffffffffffffffffffff169050816000806101000a81548173ffffffffffffffffffffffffffffffffffffffff021916908373ffffffffffffffffffffffffffffffffffffffff1602179055508173ffffffffffffffffffffffffffffffffffffffff168173ffffffffffffffffffffffffffffffffffffffff167f8be0079c531659141344cd1fd0a4f28419497f9722a3daafe3b4186f6b6457e060405160405180910390a35050565b600080fd5b600073ffffffffffffffffffffffffffffffffffffffff82169050919050565b6000620002358262000208565b9050919050565b6000620002498262000228565b9050919050565b6200025b816200023c565b81146200026757600080fd5b50565b6000815190506200027b8162000250565b92915050565b6200028c8162000228565b81146200029857600080fd5b50565b600081519050620002ac8162000281565b92915050565b6000819050919050565b620002c781620002b2565b8114620002d357600080fd5b50565b600081519050620002e781620002bc565b92915050565b600080600080608085870312156200030a576200030962000203565b5b60006200031a878288016200026a565b94505060206200032d878288016200029b565b935050604062000340878288016200029b565b92505060606200035387828801620002d6565b91505092959194509250565b612d48806200036f6000396000f3fe608060405234801561001057600080fd5b50600436106101735760003560e01c80638705fcd4116100de578063a1a4d4a411610097578063d963842211610071578063d9638422146103f3578063e2bbb1581461040f578063f2fde38b1461042b578063f456426f1461044757610173565b8063a1a4d4a414610399578063c06abfc7146103b7578063d49e77cd146103d557610173565b80638705fcd4146102c45780638aa28550146102e05780638d88a90e146102fe5780638da5cb5b1461031a5780638dbb1e3a1461033857806393f1a40b1461036857610173565b806348cd4cb11161013057806348cd4cb11461023e57806351eb05a61461025c5780635312ea8e14610278578063630b5ba114610294578063715018a61461029e57806384e82a33146102a857610173565b8063081e3eda146101785780630ba84cd2146101965780631526fe27146101b257806317caf6f1146101e65780634127535814610204578063441a3e7014610222575b600080fd5b610180610477565b60405161018d9190611fe3565b60405180910390f35b6101b060048036038101906101ab919061202f565b610484565b005b6101cc60048036038101906101c7919061202f565b610512565b6040516101dd9594939291906120f8565b60405180910390f35b6101ee610586565b6040516101fb9190611fe3565b60405180910390f35b61020c61058c565b604051610219919061216c565b60405180910390f35b61023c60048036038101906102379190612187565b6105b2565b005b6102466107e4565b6040516102539190611fe3565b60405180910390f35b6102766004803603810190610271919061202f565b6107ea565b005b610292600480360381019061028d919061202f565b610aec565b005b61029c610c27565b005b6102a6610c5a565b005b6102c260048036038101906102bd9190612269565b610ce2565b005b6102de60048036038101906102d991906122fc565b610ee6565b005b6102e8610fba565b6040516102f59190611fe3565b60405180910390f35b610318600480360381019061031391906122fc565b610fbf565b005b610322611093565b60405161032f919061216c565b60405180910390f35b610352600480360381019061034d9190612187565b6110bc565b60405161035f9190611fe3565b60405180910390f35b610382600480360381019061037d9190612329565b6110ec565b604051610390929190612369565b60405180910390f35b6103a161111d565b6040516103ae9190611fe3565b60405180910390f35b6103bf611123565b6040516103cc91906123b3565b60405180910390f35b6103dd611149565b6040516103ea919061216c565b60405180910390f35b61040d600480360381019061040891906123ce565b61116f565b005b61042960048036038101906104249190612187565b611305565b005b610445600480360381019061044091906122fc565b611609565b005b610461600480360381019061045c9190612329565b611700565b60405161046e9190611fe3565b60405180910390f35b6000600580549050905090565b61048c611925565b73ffffffffffffffffffffffffffffffffffffffff166104aa611093565b73ffffffffffffffffffffffffffffffffffffffff1614610500576040517f08c379a00000000000000000000000000000000000000000000000000000000081526004016104f790612492565b60405180910390fd5b610508610c27565b8060038190555050565b6005818154811061052257600080fd5b90600052602060002090600502016000915090508060000160009054906101000a900473ffffffffffffffffffffffffffffffffffffffff16908060010154908060020154908060030154908060040160009054906101000a900461ffff16905085565b60075481565b600460009054906101000a900473ffffffffffffffffffffffffffffffffffffffff1681565b6000600583815481106105c8576105c76124b2565b5b9060005260206000209060050201905060006006600085815260200190815260200160002060003373ffffffffffffffffffffffffffffffffffffffff1673ffffffffffffffffffffffffffffffffffffffff16815260200190815260200160002090508281600001541015610673576040517f08c379a000000000000000000000000000000000000000000000000000000000815260040161066a9061252d565b60405180910390fd5b61067c846107ea565b60006106c682600101546106b864e8d4a510006106aa8760030154876000015461192d90919063ffffffff16565b61194390919063ffffffff16565b61195990919063ffffffff16565b905060008111156106dc576106db338261196f565b5b6000841115610754576106fc84836000015461195990919063ffffffff16565b826000018190555061075333858560000160009054906101000a900473ffffffffffffffffffffffffffffffffffffffff1673ffffffffffffffffffffffffffffffffffffffff16611b649092919063ffffffff16565b5b61078664e8d4a510006107788560030154856000015461192d90919063ffffffff16565b61194390919063ffffffff16565b8260010181905550843373ffffffffffffffffffffffffffffffffffffffff167ff279e6a1f5e320cca91135676d9cb6e44ca8a08c0b88342bcdb1144f6511b568866040516107d59190611fe3565b60405180910390a35050505050565b60085481565b600060058281548110610800576107ff6124b2565b5b90600052602060002090600502019050806002015443116108215750610ae9565b60008160000160009054906101000a900473ffffffffffffffffffffffffffffffffffffffff1673ffffffffffffffffffffffffffffffffffffffff166370a08231306040518263ffffffff1660e01b8152600401610880919061216c565b602060405180830381865afa15801561089d573d6000803e3d6000fd5b505050506040513d601f19601f820116820180604052508101906108c19190612562565b905060008114806108d6575060008260010154145b156108eb574382600201819055505050610ae9565b60006108fb8360020154436110bc565b9050600061093e60075461093086600101546109226003548761192d90919063ffffffff16565b61192d90919063ffffffff16565b61194390919063ffffffff16565b9050600160009054906101000a900473ffffffffffffffffffffffffffffffffffffffff1673ffffffffffffffffffffffffffffffffffffffff166340c10f19600260009054906101000a900473ffffffffffffffffffffffffffffffffffffffff166109b5600a8561194390919063ffffffff16565b6040518363ffffffff1660e01b81526004016109d292919061258f565b600060405180830381600087803b1580156109ec57600080fd5b505af1158015610a00573d6000803e3d6000fd5b50505050600160009054906101000a900473ffffffffffffffffffffffffffffffffffffffff1673ffffffffffffffffffffffffffffffffffffffff166340c10f1930836040518363ffffffff1660e01b8152600401610a6192919061258f565b600060405180830381600087803b158015610a7b57600080fd5b505af1158015610a8f573d6000803e3d6000fd5b50505050610ad3610ac084610ab264e8d4a510008561192d90919063ffffffff16565b61194390919063ffffffff16565b8560030154611bea90919063ffffffff16565b8460030181905550438460020181905550505050505b50565b600060058281548110610b0257610b016124b2565b5b9060005260206000209060050201905060006006600084815260200190815260200160002060003373ffffffffffffffffffffffffffffffffffffffff1673ffffffffffffffffffffffffffffffffffffffff16815260200190815260200160002090506000816000015490506000826000018190555060008260010181905550610bd233828560000160009054906101000a900473ffffffffffffffffffffffffffffffffffffffff1673ffffffffffffffffffffffffffffffffffffffff16611b649092919063ffffffff16565b833373ffffffffffffffffffffffffffffffffffffffff167fbb757047c2b5f3974fe26b7c10f732e7bce710b0952a71082702781e62ae059583604051610c199190611fe3565b60405180910390a350505050565b6000600580549050905060005b81811015610c5657610c45816107ea565b80610c4f906125e7565b9050610c34565b5050565b610c62611925565b73ffffffffffffffffffffffffffffffffffffffff16610c80611093565b73ffffffffffffffffffffffffffffffffffffffff1614610cd6576040517f08c379a0000000000000000000000000000000000000000000000000000000008152600401610ccd90612492565b60405180910390fd5b610ce06000611c00565b565b610cea611925565b73ffffffffffffffffffffffffffffffffffffffff16610d08611093565b73ffffffffffffffffffffffffffffffffffffffff1614610d5e576040517f08c379a0000000000000000000000000000000000000000000000000000000008152600401610d5590612492565b60405180910390fd5b6127108261ffff161115610da7576040517f08c379a0000000000000000000000000000000000000000000000000000000008152600401610d9e906126a1565b60405180910390fd5b8015610db657610db5610c27565b5b60006008544311610dc957600854610dcb565b435b9050610de285600754611bea90919063ffffffff16565b60078190555060056040518060a001604052808673ffffffffffffffffffffffffffffffffffffffff168152602001878152602001838152602001600081526020018561ffff16815250908060018154018082558091505060019003906000526020600020906005020160009091909190915060008201518160000160006101000a81548173ffffffffffffffffffffffffffffffffffffffff021916908373ffffffffffffffffffffffffffffffffffffffff16021790555060208201518160010155604082015181600201556060820151816003015560808201518160040160006101000a81548161ffff021916908361ffff16021790555050505050505050565b600460009054906101000a900473ffffffffffffffffffffffffffffffffffffffff1673ffffffffffffffffffffffffffffffffffffffff163373ffffffffffffffffffffffffffffffffffffffff1614610f76576040517f08c379a0000000000000000000000000000000000000000000000000000000008152600401610f6d9061270d565b60405180910390fd5b80600460006101000a81548173ffffffffffffffffffffffffffffffffffffffff021916908373ffffffffffffffffffffffffffffffffffffffff16021790555050565b600181565b600260009054906101000a900473ffffffffffffffffffffffffffffffffffffffff1673ffffffffffffffffffffffffffffffffffffffff163373ffffffffffffffffffffffffffffffffffffffff161461104f576040517f08c379a000000000000000000000000000000000000000000000000000000000815260040161104690612779565b60405180910390fd5b80600260006101000a81548173ffffffffffffffffffffffffffffffffffffffff021916908373ffffffffffffffffffffffffffffffffffffffff16021790555050565b60008060009054906101000a900473ffffffffffffffffffffffffffffffffffffffff16905090565b60006110e460016110d6858561195990919063ffffffff16565b61192d90919063ffffffff16565b905092915050565b6006602052816000526040600020602052806000526040600020600091509150508060000154908060010154905082565b60035481565b600160009054906101000a900473ffffffffffffffffffffffffffffffffffffffff1681565b600260009054906101000a900473ffffffffffffffffffffffffffffffffffffffff1681565b611177611925565b73ffffffffffffffffffffffffffffffffffffffff16611195611093565b73ffffffffffffffffffffffffffffffffffffffff16146111eb576040517f08c379a00000000000000000000000000000000000000000000000000000000081526004016111e290612492565b60405180910390fd5b6127108261ffff161115611234576040517f08c379a000000000000000000000000000000000000000000000000000000000815260040161122b9061280b565b60405180910390fd5b801561124357611242610c27565b5b61128f836112816005878154811061125e5761125d6124b2565b5b90600052602060002090600502016001015460075461195990919063ffffffff16565b611bea90919063ffffffff16565b60078190555082600585815481106112aa576112a96124b2565b5b90600052602060002090600502016001018190555081600585815481106112d4576112d36124b2565b5b906000526020600020906005020160040160006101000a81548161ffff021916908361ffff16021790555050505050565b60006005838154811061131b5761131a6124b2565b5b9060005260206000209060050201905060006006600085815260200190815260200160002060003373ffffffffffffffffffffffffffffffffffffffff1673ffffffffffffffffffffffffffffffffffffffff1681526020019081526020016000209050611388846107ea565b6000816000015411156113f75760006113df82600101546113d164e8d4a510006113c38760030154876000015461192d90919063ffffffff16565b61194390919063ffffffff16565b61195990919063ffffffff16565b905060008111156113f5576113f4338261196f565b5b505b600083111561157a576114513330858560000160009054906101000a900473ffffffffffffffffffffffffffffffffffffffff1673ffffffffffffffffffffffffffffffffffffffff16611cc4909392919063ffffffff16565b60008260040160009054906101000a900461ffff1661ffff1611156115595760006114af6127106114a18560040160009054906101000a900461ffff1661ffff168761192d90919063ffffffff16565b61194390919063ffffffff16565b9050611522600460009054906101000a900473ffffffffffffffffffffffffffffffffffffffff16828560000160009054906101000a900473ffffffffffffffffffffffffffffffffffffffff1673ffffffffffffffffffffffffffffffffffffffff16611b649092919063ffffffff16565b61154b8161153d868560000154611bea90919063ffffffff16565b61195990919063ffffffff16565b826000018190555050611579565b611570838260000154611bea90919063ffffffff16565b81600001819055505b5b6115ac64e8d4a5100061159e8460030154846000015461192d90919063ffffffff16565b61194390919063ffffffff16565b8160010181905550833373ffffffffffffffffffffffffffffffffffffffff167f90890809c654f11d6e72a28fa60149770a0d11ec6c92319d6ceb2bb0a4ea1a15856040516115fb9190611fe3565b60405180910390a350505050565b611611611925565b73ffffffffffffffffffffffffffffffffffffffff1661162f611093565b73ffffffffffffffffffffffffffffffffffffffff1614611685576040517f08c379a000000000000000000000000000000000000000000000000000000000815260040161167c90612492565b60405180910390fd5b600073ffffffffffffffffffffffffffffffffffffffff168173ffffffffffffffffffffffffffffffffffffffff16036116f4576040517f08c379a00000000000000000000000000000000000000000000000000000000081526004016116eb9061289d565b60405180910390fd5b6116fd81611c00565b50565b60008060058481548110611717576117166124b2565b5b9060005260206000209060050201905060006006600086815260200190815260200160002060008573ffffffffffffffffffffffffffffffffffffffff1673ffffffffffffffffffffffffffffffffffffffff168152602001908152602001600020905060008260030154905060008360000160009054906101000a900473ffffffffffffffffffffffffffffffffffffffff1673ffffffffffffffffffffffffffffffffffffffff166370a08231306040518263ffffffff1660e01b81526004016117e3919061216c565b602060405180830381865afa158015611800573d6000803e3d6000fd5b505050506040513d601f19601f820116820180604052508101906118249190612562565b905083600201544311801561183a575060008114155b156118d557600061184f8560020154436110bc565b9050600061189260075461188488600101546118766003548761192d90919063ffffffff16565b61192d90919063ffffffff16565b61194390919063ffffffff16565b90506118d06118c1846118b364e8d4a510008561192d90919063ffffffff16565b61194390919063ffffffff16565b85611bea90919063ffffffff16565b935050505b611919836001015461190b64e8d4a510006118fd86886000015461192d90919063ffffffff16565b61194390919063ffffffff16565b61195990919063ffffffff16565b94505050505092915050565b600033905090565b6000818361193b91906128bd565b905092915050565b600081836119519190612946565b905092915050565b600081836119679190612977565b905092915050565b6000600160009054906101000a900473ffffffffffffffffffffffffffffffffffffffff1673ffffffffffffffffffffffffffffffffffffffff166370a08231306040518263ffffffff1660e01b81526004016119cc919061216c565b602060405180830381865afa1580156119e9573d6000803e3d6000fd5b505050506040513d601f19601f82011682018060405250810190611a0d9190612562565b905080821115611abd57600160009054906101000a900473ffffffffffffffffffffffffffffffffffffffff1673ffffffffffffffffffffffffffffffffffffffff1663a9059cbb84836040518363ffffffff1660e01b8152600401611a7492919061258f565b6020604051808303816000875af1158015611a93573d6000803e3d6000fd5b505050506040513d601f19601f82011682018060405250810190611ab791906129c0565b50611b5f565b600160009054906101000a900473ffffffffffffffffffffffffffffffffffffffff1673ffffffffffffffffffffffffffffffffffffffff1663a9059cbb84846040518363ffffffff1660e01b8152600401611b1a92919061258f565b6020604051808303816000875af1158015611b39573d6000803e3d6000fd5b505050506040513d601f19601f82011682018060405250810190611b5d91906129c0565b505b505050565b611be58363a9059cbb60e01b8484604051602401611b8392919061258f565b604051602081830303815290604052907bffffffffffffffffffffffffffffffffffffffffffffffffffffffff19166020820180517bffffffffffffffffffffffffffffffffffffffffffffffffffffffff8381831617835250505050611d4d565b505050565b60008183611bf891906129ed565b905092915050565b60008060009054906101000a900473ffffffffffffffffffffffffffffffffffffffff169050816000806101000a81548173ffffffffffffffffffffffffffffffffffffffff021916908373ffffffffffffffffffffffffffffffffffffffff1602179055508173ffffffffffffffffffffffffffffffffffffffff168173ffffffffffffffffffffffffffffffffffffffff167f8be0079c531659141344cd1fd0a4f28419497f9722a3daafe3b4186f6b6457e060405160405180910390a35050565b611d47846323b872dd60e01b858585604051602401611ce593929190612a43565b604051602081830303815290604052907bffffffffffffffffffffffffffffffffffffffffffffffffffffffff19166020820180517bffffffffffffffffffffffffffffffffffffffffffffffffffffffff8381831617835250505050611d4d565b50505050565b6000611daf826040518060400160405280602081526020017f5361666542455032303a206c6f772d6c6576656c2063616c6c206661696c65648152508573ffffffffffffffffffffffffffffffffffffffff16611e149092919063ffffffff16565b9050600081511115611e0f5780806020019051810190611dcf91906129c0565b611e0e576040517f08c379a0000000000000000000000000000000000000000000000000000000008152600401611e0590612aec565b60405180910390fd5b5b505050565b6060611e238484600085611e2c565b90509392505050565b606082471015611e71576040517f08c379a0000000000000000000000000000000000000000000000000000000008152600401611e6890612b7e565b60405180910390fd5b611e7a85611f40565b611eb9576040517f08c379a0000000000000000000000000000000000000000000000000000000008152600401611eb090612bea565b60405180910390fd5b6000808673ffffffffffffffffffffffffffffffffffffffff168587604051611ee29190612c84565b60006040518083038185875af1925050503d8060008114611f1f576040519150601f19603f3d011682016040523d82523d6000602084013e611f24565b606091505b5091509150611f34828286611f63565b92505050949350505050565b6000808273ffffffffffffffffffffffffffffffffffffffff163b119050919050565b60608315611f7357829050611fc3565b600083511115611f865782518084602001fd5b816040517f08c379a0000000000000000000000000000000000000000000000000000000008152600401611fba9190612cf0565b60405180910390fd5b9392505050565b6000819050919050565b611fdd81611fca565b82525050565b6000602082019050611ff86000830184611fd4565b92915050565b600080fd5b61200c81611fca565b811461201757600080fd5b50565b60008135905061202981612003565b92915050565b60006020828403121561204557612044611ffe565b5b60006120538482850161201a565b91505092915050565b600073ffffffffffffffffffffffffffffffffffffffff82169050919050565b6000819050919050565b60006120a161209c6120978461205c565b61207c565b61205c565b9050919050565b60006120b382612086565b9050919050565b60006120c5826120a8565b9050919050565b6120d5816120ba565b82525050565b600061ffff82169050919050565b6120f2816120db565b82525050565b600060a08201905061210d60008301886120cc565b61211a6020830187611fd4565b6121276040830186611fd4565b6121346060830185611fd4565b61214160808301846120e9565b9695505050505050565b60006121568261205c565b9050919050565b6121668161214b565b82525050565b6000602082019050612181600083018461215d565b92915050565b6000806040838503121561219e5761219d611ffe565b5b60006121ac8582860161201a565b92505060206121bd8582860161201a565b9150509250929050565b60006121d28261214b565b9050919050565b6121e2816121c7565b81146121ed57600080fd5b50565b6000813590506121ff816121d9565b92915050565b61220e816120db565b811461221957600080fd5b50565b60008135905061222b81612205565b92915050565b60008115159050919050565b61224681612231565b811461225157600080fd5b50565b6000813590506122638161223d565b92915050565b6000806000806080858703121561228357612282611ffe565b5b60006122918782880161201a565b94505060206122a2878288016121f0565b93505060406122b38782880161221c565b92505060606122c487828801612254565b91505092959194509250565b6122d98161214b565b81146122e457600080fd5b50565b6000813590506122f6816122d0565b92915050565b60006020828403121561231257612311611ffe565b5b6000612320848285016122e7565b91505092915050565b600080604083850312156123405761233f611ffe565b5b600061234e8582860161201a565b925050602061235f858286016122e7565b9150509250929050565b600060408201905061237e6000830185611fd4565b61238b6020830184611fd4565b9392505050565b600061239d826120a8565b9050919050565b6123ad81612392565b82525050565b60006020820190506123c860008301846123a4565b92915050565b600080600080608085870312156123e8576123e7611ffe565b5b60006123f68782880161201a565b94505060206124078782880161201a565b93505060406124188782880161221c565b925050606061242987828801612254565b91505092959194509250565b600082825260208201905092915050565b7f4f776e61626c653a2063616c6c6572206973206e6f7420746865206f776e6572600082015250565b600061247c602083612435565b915061248782612446565b602082019050919050565b600060208201905081810360008301526124ab8161246f565b9050919050565b7f4e487b7100000000000000000000000000000000000000000000000000000000600052603260045260246000fd5b7f77697468647261773a206e6f7420676f6f640000000000000000000000000000600082015250565b6000612517601283612435565b9150612522826124e1565b602082019050919050565b600060208201905081810360008301526125468161250a565b9050919050565b60008151905061255c81612003565b92915050565b60006020828403121561257857612577611ffe565b5b60006125868482850161254d565b91505092915050565b60006040820190506125a4600083018561215d565b6125b16020830184611fd4565b9392505050565b7f4e487b7100000000000000000000000000000000000000000000000000000000600052601160045260246000fd5b60006125f282611fca565b91507fffffffffffffffffffffffffffffffffffffffffffffffffffffffffffffffff8203612624576126236125b8565b5b600182019050919050565b7f6164643a20696e76616c6964206465706f73697420666565206261736973207060008201527f6f696e7473000000000000000000000000000000000000000000000000000000602082015250565b600061268b602583612435565b91506126968261262f565b604082019050919050565b600060208201905081810360008301526126ba8161267e565b9050919050565b7f736574466565416464726573733a20464f5242494444454e0000000000000000600082015250565b60006126f7601883612435565b9150612702826126c1565b602082019050919050565b60006020820190508181036000830152612726816126ea565b9050919050565b7f6465763a207775743f0000000000000000000000000000000000000000000000600082015250565b6000612763600983612435565b915061276e8261272d565b602082019050919050565b6000602082019050818103600083015261279281612756565b9050919050565b7f7365743a20696e76616c6964206465706f73697420666565206261736973207060008201527f6f696e7473000000000000000000000000000000000000000000000000000000602082015250565b60006127f5602583612435565b915061280082612799565b604082019050919050565b60006020820190508181036000830152612824816127e8565b9050919050565b7f4f776e61626c653a206e6577206f776e657220697320746865207a65726f206160008201527f6464726573730000000000000000000000000000000000000000000000000000602082015250565b6000612887602683612435565b91506128928261282b565b604082019050919050565b600060208201905081810360008301526128b68161287a565b9050919050565b60006128c882611fca565b91506128d383611fca565b9250817fffffffffffffffffffffffffffffffffffffffffffffffffffffffffffffffff048311821515161561290c5761290b6125b8565b5b828202905092915050565b7f4e487b7100000000000000000000000000000000000000000000000000000000600052601260045260246000fd5b600061295182611fca565b915061295c83611fca565b92508261296c5761296b612917565b5b828204905092915050565b600061298282611fca565b915061298d83611fca565b9250828210156129a05761299f6125b8565b5b828203905092915050565b6000815190506129ba8161223d565b92915050565b6000602082840312156129d6576129d5611ffe565b5b60006129e4848285016129ab565b91505092915050565b60006129f882611fca565b9150612a0383611fca565b9250827fffffffffffffffffffffffffffffffffffffffffffffffffffffffffffffffff03821115612a3857612a376125b8565b5b828201905092915050565b6000606082019050612a58600083018661215d565b612a65602083018561215d565b612a726040830184611fd4565b949350505050565b7f5361666542455032303a204245503230206f7065726174696f6e20646964206e60008201527f6f74207375636365656400000000000000000000000000000000000000000000602082015250565b6000612ad6602a83612435565b9150612ae182612a7a565b604082019050919050565b60006020820190508181036000830152612b0581612ac9565b9050919050565b7f416464726573733a20696e73756666696369656e742062616c616e636520666f60008201527f722063616c6c0000000000000000000000000000000000000000000000000000602082015250565b6000612b68602683612435565b9150612b7382612b0c565b604082019050919050565b60006020820190508181036000830152612b9781612b5b565b9050919050565b7f416464726573733a2063616c6c20746f206e6f6e2d636f6e7472616374000000600082015250565b6000612bd4601d83612435565b9150612bdf82612b9e565b602082019050919050565b60006020820190508181036000830152612c0381612bc7565b9050919050565b600081519050919050565b600081905092915050565b60005b83811015612c3e578082015181840152602081019050612c23565b83811115612c4d576000848401525b50505050565b6000612c5e82612c0a565b612c688185612c15565b9350612c78818560208601612c20565b80840191505092915050565b6000612c908284612c53565b915081905092915050565b600081519050919050565b6000601f19601f8301169050919050565b6000612cc282612c9b565b612ccc8185612435565b9350612cdc818560208601612c20565b612ce581612ca6565b840191505092915050565b60006020820190508181036000830152612d0a8184612cb7565b90509291505056fea2646970667358221220add06cb4e0967e4a9caeb37736cc3f94ed0d5b0b6db18b31e6a5b56a09faf09a64736f6c634300080d0033",
  "immutableReferences": {},
  "source": "// SPDX-License-Identifier: MIT\r\npragma solidity >=0.6.12 < 0.9.0;\r\n\r\nimport \"@openzeppelin/contracts/utils/math/SafeMath.sol\";\r\nimport \"./libs/IBEP20.sol\";\r\nimport \"./libs/SafeBEP20.sol\";\r\nimport \"@openzeppelin/contracts/access/Ownable.sol\";\r\n\r\nimport \"./EggToken.sol\";\r\n\r\n// MasterChef is the master of Egg. He can make Egg and he is a fair guy.\r\n//\r\n// Note that it's ownable and the owner wields tremendous power. The ownership\r\n// will be transferred to a governance smart contract once EGG is sufficiently\r\n// distributed and the community can show to govern itself.\r\n//\r\n// Have fun reading it. Hopefully it's bug-free. God bless.\r\ncontract MasterChef is Ownable {\r\n    using SafeMath for uint256;\r\n    using SafeBEP20 for IBEP20;\r\n\r\n    // Info of each user.\r\n    struct UserInfo {\r\n        uint256 amount;         // How many LP tokens the user has provided.\r\n        uint256 rewardDebt;     // Reward debt. See explanation below.\r\n        //\r\n        // We do some fancy math here. Basically, any point in time, the amount of EGGs\r\n        // entitled to a user but is pending to be distributed is:\r\n        //\r\n        //   pending reward = (user.amount * pool.accEggPerShare) - user.rewardDebt\r\n        //\r\n        // Whenever a user deposits or withdraws LP tokens to a pool. Here's what happens:\r\n        //   1. The pool's `accEggPerShare` (and `lastRewardBlock`) gets updated.\r\n        //   2. User receives the pending reward sent to his/her address.\r\n        //   3. User's `amount` gets updated.\r\n        //   4. User's `rewardDebt` gets updated.\r\n    }\r\n\r\n    // Info of each pool.\r\n    struct PoolInfo {\r\n        IBEP20 lpToken;           // Address of LP token contract.\r\n        uint256 allocPoint;       // How many allocation points assigned to this pool. EGGs to distribute per block.\r\n        uint256 lastRewardBlock;  // Last block number that EGGs distribution occurs.\r\n        uint256 accEggPerShare;   // Accumulated EGGs per share, times 1e12. See below.\r\n        uint16 depositFeeBP;      // Deposit fee in basis points\r\n    }\r\n\r\n    // The EGG TOKEN!\r\n    EggToken public egg;\r\n    // Dev address.\r\n    address public devaddr;\r\n    // EGG tokens created per block.\r\n    uint256 public eggPerBlock;\r\n    // Bonus muliplier for early egg makers.\r\n    uint256 public constant BONUS_MULTIPLIER = 1;\r\n    // Deposit Fee address\r\n    address public feeAddress;\r\n\r\n    // Info of each pool.\r\n    PoolInfo[] public poolInfo;\r\n    // Info of each user that stakes LP tokens.\r\n    mapping (uint256 => mapping (address => UserInfo)) public userInfo;\r\n    // Total allocation points. Must be the sum of all allocation points in all pools.\r\n    uint256 public totalAllocPoint = 0;\r\n    // The block number when EGG mining starts.\r\n    uint256 public startBlock;\r\n\r\n    event Deposit(address indexed user, uint256 indexed pid, uint256 amount);\r\n    event Withdraw(address indexed user, uint256 indexed pid, uint256 amount);\r\n    event EmergencyWithdraw(address indexed user, uint256 indexed pid, uint256 amount);\r\n\r\n    constructor(\r\n        EggToken _egg,\r\n        address _devaddr,\r\n        address _feeAddress,\r\n        uint256 _eggPerBlock\r\n    ) {\r\n        egg = _egg;\r\n        devaddr = _devaddr;\r\n        feeAddress = _feeAddress;\r\n        eggPerBlock = _eggPerBlock;\r\n        startBlock = block.number;\r\n    }\r\n\r\n    function poolLength() external view returns (uint256) {\r\n        return poolInfo.length;\r\n    }\r\n\r\n    // Add a new lp to the pool. Can only be called by the owner.\r\n    // XXX DO NOT add the same LP token more than once. Rewards will be messed up if you do.\r\n    function add(uint256 _allocPoint, IBEP20 _lpToken, uint16 _depositFeeBP, bool _withUpdate) public onlyOwner {\r\n        require(_depositFeeBP <= 10000, \"add: invalid deposit fee basis points\");\r\n        if (_withUpdate) {\r\n            massUpdatePools();\r\n        }\r\n        uint256 lastRewardBlock = block.number > startBlock ? block.number : startBlock;\r\n        totalAllocPoint = totalAllocPoint.add(_allocPoint);\r\n        poolInfo.push(PoolInfo({\r\n            lpToken: _lpToken,\r\n            allocPoint: _allocPoint,\r\n            lastRewardBlock: lastRewardBlock,\r\n            accEggPerShare: 0,\r\n            depositFeeBP: _depositFeeBP\r\n        }));\r\n    }\r\n\r\n    // Update the given pool's EGG allocation point and deposit fee. Can only be called by the owner.\r\n    function set(uint256 _pid, uint256 _allocPoint, uint16 _depositFeeBP, bool _withUpdate) public onlyOwner {\r\n        require(_depositFeeBP <= 10000, \"set: invalid deposit fee basis points\");\r\n        if (_withUpdate) {\r\n            massUpdatePools();\r\n        }\r\n        totalAllocPoint = totalAllocPoint.sub(poolInfo[_pid].allocPoint).add(_allocPoint);\r\n        poolInfo[_pid].allocPoint = _allocPoint;\r\n        poolInfo[_pid].depositFeeBP = _depositFeeBP;\r\n    }\r\n\r\n    // Return reward multiplier over the given _from to _to block.\r\n    function getMultiplier(uint256 _from, uint256 _to) public pure returns (uint256) {\r\n        return _to.sub(_from).mul(BONUS_MULTIPLIER);\r\n    }\r\n\r\n    // View function to see pending EGGs on frontend.\r\n    function pendingEgg(uint256 _pid, address _user) external view returns (uint256) {\r\n        PoolInfo storage pool = poolInfo[_pid];\r\n        UserInfo storage user = userInfo[_pid][_user];\r\n        uint256 accEggPerShare = pool.accEggPerShare;\r\n        uint256 lpSupply = pool.lpToken.balanceOf(address(this));\r\n        if (block.number > pool.lastRewardBlock && lpSupply != 0) {\r\n            uint256 multiplier = getMultiplier(pool.lastRewardBlock, block.number);\r\n            uint256 eggReward = multiplier.mul(eggPerBlock).mul(pool.allocPoint).div(totalAllocPoint);\r\n            accEggPerShare = accEggPerShare.add(eggReward.mul(1e12).div(lpSupply));\r\n        }\r\n        return user.amount.mul(accEggPerShare).div(1e12).sub(user.rewardDebt);\r\n    }\r\n\r\n    // Update reward variables for all pools. Be careful of gas spending!\r\n    function massUpdatePools() public {\r\n        uint256 length = poolInfo.length;\r\n        for (uint256 pid = 0; pid < length; ++pid) {\r\n            updatePool(pid);\r\n        }\r\n    }\r\n\r\n    // Update reward variables of the given pool to be up-to-date.\r\n    function updatePool(uint256 _pid) public {\r\n        PoolInfo storage pool = poolInfo[_pid];\r\n        if (block.number <= pool.lastRewardBlock) {\r\n            return;\r\n        }\r\n        uint256 lpSupply = pool.lpToken.balanceOf(address(this));\r\n        if (lpSupply == 0 || pool.allocPoint == 0) {\r\n            pool.lastRewardBlock = block.number;\r\n            return;\r\n        }\r\n        uint256 multiplier = getMultiplier(pool.lastRewardBlock, block.number);\r\n        uint256 eggReward = multiplier.mul(eggPerBlock).mul(pool.allocPoint).div(totalAllocPoint);\r\n        egg.mint(devaddr, eggReward.div(10));\r\n        egg.mint(address(this), eggReward);\r\n        pool.accEggPerShare = pool.accEggPerShare.add(eggReward.mul(1e12).div(lpSupply));\r\n        pool.lastRewardBlock = block.number;\r\n    }\r\n\r\n    // Deposit LP tokens to MasterChef for EGG allocation.\r\n    function deposit(uint256 _pid, uint256 _amount) public {\r\n        PoolInfo storage pool = poolInfo[_pid];\r\n        UserInfo storage user = userInfo[_pid][msg.sender];\r\n        updatePool(_pid);\r\n        if (user.amount > 0) {\r\n            uint256 pending = user.amount.mul(pool.accEggPerShare).div(1e12).sub(user.rewardDebt);\r\n            if(pending > 0) {\r\n                safeEggTransfer(msg.sender, pending);\r\n            }\r\n        }\r\n        if(_amount > 0) {\r\n            pool.lpToken.safeTransferFrom(address(msg.sender), address(this), _amount);\r\n            if(pool.depositFeeBP > 0){\r\n                uint256 depositFee = _amount.mul(pool.depositFeeBP).div(10000);\r\n                pool.lpToken.safeTransfer(feeAddress, depositFee);\r\n                user.amount = user.amount.add(_amount).sub(depositFee);\r\n            }else{\r\n                user.amount = user.amount.add(_amount);\r\n            }\r\n        }\r\n        user.rewardDebt = user.amount.mul(pool.accEggPerShare).div(1e12);\r\n        emit Deposit(msg.sender, _pid, _amount);\r\n    }\r\n\r\n    // Withdraw LP tokens from MasterChef.\r\n    function withdraw(uint256 _pid, uint256 _amount) public {\r\n        PoolInfo storage pool = poolInfo[_pid];\r\n        UserInfo storage user = userInfo[_pid][msg.sender];\r\n        require(user.amount >= _amount, \"withdraw: not good\");\r\n        updatePool(_pid);\r\n        uint256 pending = user.amount.mul(pool.accEggPerShare).div(1e12).sub(user.rewardDebt);\r\n        if(pending > 0) {\r\n            safeEggTransfer(msg.sender, pending);\r\n        }\r\n        if(_amount > 0) {\r\n            user.amount = user.amount.sub(_amount);\r\n            pool.lpToken.safeTransfer(address(msg.sender), _amount);\r\n        }\r\n        user.rewardDebt = user.amount.mul(pool.accEggPerShare).div(1e12);\r\n        emit Withdraw(msg.sender, _pid, _amount);\r\n    }\r\n\r\n    // Withdraw without caring about rewards. EMERGENCY ONLY.\r\n    function emergencyWithdraw(uint256 _pid) public {\r\n        PoolInfo storage pool = poolInfo[_pid];\r\n        UserInfo storage user = userInfo[_pid][msg.sender];\r\n        uint256 amount = user.amount;\r\n        user.amount = 0;\r\n        user.rewardDebt = 0;\r\n        pool.lpToken.safeTransfer(address(msg.sender), amount);\r\n        emit EmergencyWithdraw(msg.sender, _pid, amount);\r\n    }\r\n\r\n    // Safe egg transfer function, just in case if rounding error causes pool to not have enough EGGs.\r\n    function safeEggTransfer(address _to, uint256 _amount) internal {\r\n        uint256 eggBal = egg.balanceOf(address(this));\r\n        if (_amount > eggBal) {\r\n            egg.transfer(_to, eggBal);\r\n        } else {\r\n            egg.transfer(_to, _amount);\r\n        }\r\n    }\r\n\r\n    // Update dev address by the previous dev.\r\n    function dev(address _devaddr) public {\r\n        require(msg.sender == devaddr, \"dev: wut?\");\r\n        devaddr = _devaddr;\r\n    }\r\n\r\n    function setFeeAddress(address _feeAddress) public{\r\n        require(msg.sender == feeAddress, \"setFeeAddress: FORBIDDEN\");\r\n        feeAddress = _feeAddress;\r\n    }\r\n\r\n    //Pancake has to add hidden dummy pools inorder to alter the emission, here we make it simple and transparent to all.\r\n    function updateEmissionRate(uint256 _eggPerBlock) public onlyOwner {\r\n        massUpdatePools();\r\n        eggPerBlock = _eggPerBlock;\r\n    }\r\n}",
  "sourcePath": "C:\\Users\\pc\\Desktop\\test\\Goose\\contracts\\MasterChef.sol",
  "compiler": {
    "name": "solc",
    "version": "0.8.13+commit.abaa5c0e.Emscripten.clang"
  },
  "schemaVersion": "3.4.7",
  "updatedAt": "2022-04-15T14:29:24.426Z",
  "devdoc": {
    "kind": "dev",
    "methods": {
      "owner()": {
        "details": "Returns the address of the current owner."
      },
      "renounceOwnership()": {
        "details": "Leaves the contract without owner. It will not be possible to call `onlyOwner` functions anymore. Can only be called by the current owner. NOTE: Renouncing ownership will leave the contract without an owner, thereby removing any functionality that is only available to the owner."
      },
      "transferOwnership(address)": {
        "details": "Transfers ownership of the contract to a new account (`newOwner`). Can only be called by the current owner."
      }
    },
    "version": 1
  },
  "userdoc": {
    "kind": "user",
    "methods": {},
    "version": 1
  }
}