{
  "contractName": "MasterChefV2",
  "abi": [
    {
      "inputs": [
        {
          "internalType": "contract EggToken",
          "name": "_egg",
          "type": "address"
        },
        {
          "internalType": "address",
          "name": "_devaddr",
          "type": "address"
        },
        {
          "internalType": "address",
          "name": "_feeAddress",
          "type": "address"
        },
        {
          "internalType": "uint256",
          "name": "_eggPerBlock",
          "type": "uint256"
        },
        {
          "internalType": "uint256",
          "name": "_startBlock",
          "type": "uint256"
        }
      ],
      "stateMutability": "nonpayable",
      "type": "constructor"
    },
    {
      "anonymous": false,
      "inputs": [
        {
          "indexed": true,
          "internalType": "address",
          "name": "user",
          "type": "address"
        },
        {
          "indexed": true,
          "internalType": "uint256",
          "name": "pid",
          "type": "uint256"
        },
        {
          "indexed": false,
          "internalType": "uint256",
          "name": "amount",
          "type": "uint256"
        }
      ],
      "name": "Deposit",
      "type": "event"
    },
    {
      "anonymous": false,
      "inputs": [
        {
          "indexed": true,
          "internalType": "address",
          "name": "user",
          "type": "address"
        },
        {
          "indexed": true,
          "internalType": "uint256",
          "name": "pid",
          "type": "uint256"
        },
        {
          "indexed": false,
          "internalType": "uint256",
          "name": "amount",
          "type": "uint256"
        }
      ],
      "name": "EmergencyWithdraw",
      "type": "event"
    },
    {
      "anonymous": false,
      "inputs": [
        {
          "indexed": true,
          "internalType": "address",
          "name": "previousOwner",
          "type": "address"
        },
        {
          "indexed": true,
          "internalType": "address",
          "name": "newOwner",
          "type": "address"
        }
      ],
      "name": "OwnershipTransferred",
      "type": "event"
    },
    {
      "anonymous": false,
      "inputs": [
        {
          "indexed": true,
          "internalType": "address",
          "name": "user",
          "type": "address"
        },
        {
          "indexed": true,
          "internalType": "address",
          "name": "newAddress",
          "type": "address"
        }
      ],
      "name": "SetDevAddress",
      "type": "event"
    },
    {
      "anonymous": false,
      "inputs": [
        {
          "indexed": true,
          "internalType": "address",
          "name": "user",
          "type": "address"
        },
        {
          "indexed": true,
          "internalType": "address",
          "name": "newAddress",
          "type": "address"
        }
      ],
      "name": "SetFeeAddress",
      "type": "event"
    },
    {
      "anonymous": false,
      "inputs": [
        {
          "indexed": true,
          "internalType": "address",
          "name": "user",
          "type": "address"
        },
        {
          "indexed": false,
          "internalType": "uint256",
          "name": "goosePerBlock",
          "type": "uint256"
        }
      ],
      "name": "UpdateEmissionRate",
      "type": "event"
    },
    {
      "anonymous": false,
      "inputs": [
        {
          "indexed": true,
          "internalType": "address",
          "name": "user",
          "type": "address"
        },
        {
          "indexed": true,
          "internalType": "uint256",
          "name": "pid",
          "type": "uint256"
        },
        {
          "indexed": false,
          "internalType": "uint256",
          "name": "amount",
          "type": "uint256"
        }
      ],
      "name": "Withdraw",
      "type": "event"
    },
    {
      "inputs": [],
      "name": "BONUS_MULTIPLIER",
      "outputs": [
        {
          "internalType": "uint256",
          "name": "",
          "type": "uint256"
        }
      ],
      "stateMutability": "view",
      "type": "function"
    },
    {
      "inputs": [],
      "name": "devaddr",
      "outputs": [
        {
          "internalType": "address",
          "name": "",
          "type": "address"
        }
      ],
      "stateMutability": "view",
      "type": "function"
    },
    {
      "inputs": [],
      "name": "egg",
      "outputs": [
        {
          "internalType": "contract EggToken",
          "name": "",
          "type": "address"
        }
      ],
      "stateMutability": "view",
      "type": "function"
    },
    {
      "inputs": [],
      "name": "eggPerBlock",
      "outputs": [
        {
          "internalType": "uint256",
          "name": "",
          "type": "uint256"
        }
      ],
      "stateMutability": "view",
      "type": "function"
    },
    {
      "inputs": [],
      "name": "feeAddress",
      "outputs": [
        {
          "internalType": "address",
          "name": "",
          "type": "address"
        }
      ],
      "stateMutability": "view",
      "type": "function"
    },
    {
      "inputs": [],
      "name": "owner",
      "outputs": [
        {
          "internalType": "address",
          "name": "",
          "type": "address"
        }
      ],
      "stateMutability": "view",
      "type": "function"
    },
    {
      "inputs": [
        {
          "internalType": "contract IBEP20",
          "name": "",
          "type": "address"
        }
      ],
      "name": "poolExistence",
      "outputs": [
        {
          "internalType": "bool",
          "name": "",
          "type": "bool"
        }
      ],
      "stateMutability": "view",
      "type": "function"
    },
    {
      "inputs": [
        {
          "internalType": "uint256",
          "name": "",
          "type": "uint256"
        }
      ],
      "name": "poolInfo",
      "outputs": [
        {
          "internalType": "contract IBEP20",
          "name": "lpToken",
          "type": "address"
        },
        {
          "internalType": "uint256",
          "name": "allocPoint",
          "type": "uint256"
        },
        {
          "internalType": "uint256",
          "name": "lastRewardBlock",
          "type": "uint256"
        },
        {
          "internalType": "uint256",
          "name": "accEggPerShare",
          "type": "uint256"
        },
        {
          "internalType": "uint16",
          "name": "depositFeeBP",
          "type": "uint16"
        }
      ],
      "stateMutability": "view",
      "type": "function"
    },
    {
      "inputs": [],
      "name": "renounceOwnership",
      "outputs": [],
      "stateMutability": "nonpayable",
      "type": "function"
    },
    {
      "inputs": [],
      "name": "startBlock",
      "outputs": [
        {
          "internalType": "uint256",
          "name": "",
          "type": "uint256"
        }
      ],
      "stateMutability": "view",
      "type": "function"
    },
    {
      "inputs": [],
      "name": "totalAllocPoint",
      "outputs": [
        {
          "internalType": "uint256",
          "name": "",
          "type": "uint256"
        }
      ],
      "stateMutability": "view",
      "type": "function"
    },
    {
      "inputs": [
        {
          "internalType": "address",
          "name": "newOwner",
          "type": "address"
        }
      ],
      "name": "transferOwnership",
      "outputs": [],
      "stateMutability": "nonpayable",
      "type": "function"
    },
    {
      "inputs": [
        {
          "internalType": "uint256",
          "name": "",
          "type": "uint256"
        },
        {
          "internalType": "address",
          "name": "",
          "type": "address"
        }
      ],
      "name": "userInfo",
      "outputs": [
        {
          "internalType": "uint256",
          "name": "amount",
          "type": "uint256"
        },
        {
          "internalType": "uint256",
          "name": "rewardDebt",
          "type": "uint256"
        }
      ],
      "stateMutability": "view",
      "type": "function"
    },
    {
      "inputs": [],
      "name": "poolLength",
      "outputs": [
        {
          "internalType": "uint256",
          "name": "",
          "type": "uint256"
        }
      ],
      "stateMutability": "view",
      "type": "function"
    },
    {
      "inputs": [
        {
          "internalType": "uint256",
          "name": "_allocPoint",
          "type": "uint256"
        },
        {
          "internalType": "contract IBEP20",
          "name": "_lpToken",
          "type": "address"
        },
        {
          "internalType": "uint16",
          "name": "_depositFeeBP",
          "type": "uint16"
        },
        {
          "internalType": "bool",
          "name": "_withUpdate",
          "type": "bool"
        }
      ],
      "name": "add",
      "outputs": [],
      "stateMutability": "nonpayable",
      "type": "function"
    },
    {
      "inputs": [
        {
          "internalType": "uint256",
          "name": "_pid",
          "type": "uint256"
        },
        {
          "internalType": "uint256",
          "name": "_allocPoint",
          "type": "uint256"
        },
        {
          "internalType": "uint16",
          "name": "_depositFeeBP",
          "type": "uint16"
        },
        {
          "internalType": "bool",
          "name": "_withUpdate",
          "type": "bool"
        }
      ],
      "name": "set",
      "outputs": [],
      "stateMutability": "nonpayable",
      "type": "function"
    },
    {
      "inputs": [
        {
          "internalType": "uint256",
          "name": "_from",
          "type": "uint256"
        },
        {
          "internalType": "uint256",
          "name": "_to",
          "type": "uint256"
        }
      ],
      "name": "getMultiplier",
      "outputs": [
        {
          "internalType": "uint256",
          "name": "",
          "type": "uint256"
        }
      ],
      "stateMutability": "pure",
      "type": "function"
    },
    {
      "inputs": [
        {
          "internalType": "uint256",
          "name": "_pid",
          "type": "uint256"
        },
        {
          "internalType": "address",
          "name": "_user",
          "type": "address"
        }
      ],
      "name": "pendingEgg",
      "outputs": [
        {
          "internalType": "uint256",
          "name": "",
          "type": "uint256"
        }
      ],
      "stateMutability": "view",
      "type": "function"
    },
    {
      "inputs": [],
      "name": "massUpdatePools",
      "outputs": [],
      "stateMutability": "nonpayable",
      "type": "function"
    },
    {
      "inputs": [
        {
          "internalType": "uint256",
          "name": "_pid",
          "type": "uint256"
        }
      ],
      "name": "updatePool",
      "outputs": [],
      "stateMutability": "nonpayable",
      "type": "function"
    },
    {
      "inputs": [
        {
          "internalType": "uint256",
          "name": "_pid",
          "type": "uint256"
        },
        {
          "internalType": "uint256",
          "name": "_amount",
          "type": "uint256"
        }
      ],
      "name": "deposit",
      "outputs": [],
      "stateMutability": "nonpayable",
      "type": "function"
    },
    {
      "inputs": [
        {
          "internalType": "uint256",
          "name": "_pid",
          "type": "uint256"
        },
        {
          "internalType": "uint256",
          "name": "_amount",
          "type": "uint256"
        }
      ],
      "name": "withdraw",
      "outputs": [],
      "stateMutability": "nonpayable",
      "type": "function"
    },
    {
      "inputs": [
        {
          "internalType": "uint256",
          "name": "_pid",
          "type": "uint256"
        }
      ],
      "name": "emergencyWithdraw",
      "outputs": [],
      "stateMutability": "nonpayable",
      "type": "function"
    },
    {
      "inputs": [
        {
          "internalType": "address",
          "name": "_devaddr",
          "type": "address"
        }
      ],
      "name": "dev",
      "outputs": [],
      "stateMutability": "nonpayable",
      "type": "function"
    },
    {
      "inputs": [
        {
          "internalType": "address",
          "name": "_feeAddress",
          "type": "address"
        }
      ],
      "name": "setFeeAddress",
      "outputs": [],
      "stateMutability": "nonpayable",
      "type": "function"
    },
    {
      "inputs": [
        {
          "internalType": "uint256",
          "name": "_eggPerBlock",
          "type": "uint256"
        }
      ],
      "name": "updateEmissionRate",
      "outputs": [],
      "stateMutability": "nonpayable",
      "type": "function"
    }
  ],
  "bytecode": "0x608060405260006008553480156200001657600080fd5b506040516200360b3803806200360b83398181016040528101906200003c9190620002f5565b6200005c620000506200013f60201b60201c565b6200014760201b60201c565b6001808190555084600260006101000a81548173ffffffffffffffffffffffffffffffffffffffff021916908373ffffffffffffffffffffffffffffffffffffffff16021790555083600360006101000a81548173ffffffffffffffffffffffffffffffffffffffff021916908373ffffffffffffffffffffffffffffffffffffffff16021790555082600560006101000a81548173ffffffffffffffffffffffffffffffffffffffff021916908373ffffffffffffffffffffffffffffffffffffffff160217905550816004819055508060098190555050505050506200037d565b600033905090565b60008060009054906101000a900473ffffffffffffffffffffffffffffffffffffffff169050816000806101000a81548173ffffffffffffffffffffffffffffffffffffffff021916908373ffffffffffffffffffffffffffffffffffffffff1602179055508173ffffffffffffffffffffffffffffffffffffffff168173ffffffffffffffffffffffffffffffffffffffff167f8be0079c531659141344cd1fd0a4f28419497f9722a3daafe3b4186f6b6457e060405160405180910390a35050565b600080fd5b600073ffffffffffffffffffffffffffffffffffffffff82169050919050565b60006200023d8262000210565b9050919050565b6000620002518262000230565b9050919050565b620002638162000244565b81146200026f57600080fd5b50565b600081519050620002838162000258565b92915050565b620002948162000230565b8114620002a057600080fd5b50565b600081519050620002b48162000289565b92915050565b6000819050919050565b620002cf81620002ba565b8114620002db57600080fd5b50565b600081519050620002ef81620002c4565b92915050565b600080600080600060a086880312156200031457620003136200020b565b5b6000620003248882890162000272565b95505060206200033788828901620002a3565b94505060406200034a88828901620002a3565b93505060606200035d88828901620002de565b92505060806200037088828901620002de565b9150509295509295909350565b61327e806200038d6000396000f3fe608060405234801561001057600080fd5b506004361061018e5760003560e01c80638aa28550116100de578063c06abfc711610097578063d963842211610071578063d96384221461043e578063e2bbb1581461045a578063f2fde38b14610476578063f456426f146104925761018e565b8063c06abfc7146103d2578063cbd258b5146103f0578063d49e77cd146104205761018e565b80638aa28550146102fb5780638d88a90e146103195780638da5cb5b146103355780638dbb1e3a1461035357806393f1a40b14610383578063a1a4d4a4146103b45761018e565b806348cd4cb11161014b578063630b5ba111610125578063630b5ba1146102af578063715018a6146102b957806384e82a33146102c35780638705fcd4146102df5761018e565b806348cd4cb11461025957806351eb05a6146102775780635312ea8e146102935761018e565b8063081e3eda146101935780630ba84cd2146101b15780631526fe27146101cd57806317caf6f114610201578063412753581461021f578063441a3e701461023d575b600080fd5b61019b6104c2565b6040516101a8919061237e565b60405180910390f35b6101cb60048036038101906101c691906123ca565b6104cf565b005b6101e760048036038101906101e291906123ca565b6105ab565b6040516101f8959493929190612493565b60405180910390f35b61020961061f565b604051610216919061237e565b60405180910390f35b610227610625565b6040516102349190612507565b60405180910390f35b61025760048036038101906102529190612522565b61064b565b005b6102616108d1565b60405161026e919061237e565b60405180910390f35b610291600480360381019061028c91906123ca565b6108d7565b005b6102ad60048036038101906102a891906123ca565b610bd9565b005b6102b7610d68565b005b6102c1610d9b565b005b6102dd60048036038101906102d89190612604565b610e23565b005b6102f960048036038101906102f49190612697565b611114565b005b610303611242565b604051610310919061237e565b60405180910390f35b610333600480360381019061032e9190612697565b611247565b005b61033d611375565b60405161034a9190612507565b60405180910390f35b61036d60048036038101906103689190612522565b61139e565b60405161037a919061237e565b60405180910390f35b61039d600480360381019061039891906126c4565b6113ce565b6040516103ab929190612704565b60405180910390f35b6103bc6113ff565b6040516103c9919061237e565b60405180910390f35b6103da611405565b6040516103e7919061274e565b60405180910390f35b61040a60048036038101906104059190612769565b61142b565b60405161041791906127a5565b60405180910390f35b61042861144b565b6040516104359190612507565b60405180910390f35b610458600480360381019061045391906127c0565b611471565b005b610474600480360381019061046f9190612522565b611607565b005b610490600480360381019061048b9190612697565b61195f565b005b6104ac60048036038101906104a791906126c4565b611a56565b6040516104b9919061237e565b60405180910390f35b6000600680549050905090565b6104d7611c7b565b73ffffffffffffffffffffffffffffffffffffffff166104f5611375565b73ffffffffffffffffffffffffffffffffffffffff161461054b576040517f08c379a000000000000000000000000000000000000000000000000000000000815260040161054290612884565b60405180910390fd5b610553610d68565b806004819055503373ffffffffffffffffffffffffffffffffffffffff167fe2492e003bbe8afa53088b406f0c1cb5d9e280370fc72a74cf116ffd343c4053826040516105a0919061237e565b60405180910390a250565b600681815481106105bb57600080fd5b90600052602060002090600502016000915090508060000160009054906101000a900473ffffffffffffffffffffffffffffffffffffffff16908060010154908060020154908060030154908060040160009054906101000a900461ffff16905085565b60085481565b600560009054906101000a900473ffffffffffffffffffffffffffffffffffffffff1681565b600260015403610690576040517f08c379a0000000000000000000000000000000000000000000000000000000008152600401610687906128f0565b60405180910390fd5b60026001819055506000600683815481106106ae576106ad612910565b5b9060005260206000209060050201905060006007600085815260200190815260200160002060003373ffffffffffffffffffffffffffffffffffffffff1673ffffffffffffffffffffffffffffffffffffffff16815260200190815260200160002090508281600001541015610759576040517f08c379a00000000000000000000000000000000000000000000000000000000081526004016107509061298b565b60405180910390fd5b610762846108d7565b60006107ac826001015461079e64e8d4a5100061079087600301548760000154611c8390919063ffffffff16565b611c9990919063ffffffff16565b611caf90919063ffffffff16565b905060008111156107c2576107c13382611cc5565b5b600084111561083a576107e2848360000154611caf90919063ffffffff16565b826000018190555061083933858560000160009054906101000a900473ffffffffffffffffffffffffffffffffffffffff1673ffffffffffffffffffffffffffffffffffffffff16611eff9092919063ffffffff16565b5b61086c64e8d4a5100061085e85600301548560000154611c8390919063ffffffff16565b611c9990919063ffffffff16565b8260010181905550843373ffffffffffffffffffffffffffffffffffffffff167ff279e6a1f5e320cca91135676d9cb6e44ca8a08c0b88342bcdb1144f6511b568866040516108bb919061237e565b60405180910390a3505050600180819055505050565b60095481565b6000600682815481106108ed576108ec612910565b5b906000526020600020906005020190508060020154431161090e5750610bd6565b60008160000160009054906101000a900473ffffffffffffffffffffffffffffffffffffffff1673ffffffffffffffffffffffffffffffffffffffff166370a08231306040518263ffffffff1660e01b815260040161096d9190612507565b602060405180830381865afa15801561098a573d6000803e3d6000fd5b505050506040513d601f19601f820116820180604052508101906109ae91906129c0565b905060008114806109c3575060008260010154145b156109d8574382600201819055505050610bd6565b60006109e883600201544361139e565b90506000610a2b600854610a1d8660010154610a0f60045487611c8390919063ffffffff16565b611c8390919063ffffffff16565b611c9990919063ffffffff16565b9050600260009054906101000a900473ffffffffffffffffffffffffffffffffffffffff1673ffffffffffffffffffffffffffffffffffffffff166340c10f19600360009054906101000a900473ffffffffffffffffffffffffffffffffffffffff16610aa2600a85611c9990919063ffffffff16565b6040518363ffffffff1660e01b8152600401610abf9291906129ed565b600060405180830381600087803b158015610ad957600080fd5b505af1158015610aed573d6000803e3d6000fd5b50505050600260009054906101000a900473ffffffffffffffffffffffffffffffffffffffff1673ffffffffffffffffffffffffffffffffffffffff166340c10f1930836040518363ffffffff1660e01b8152600401610b4e9291906129ed565b600060405180830381600087803b158015610b6857600080fd5b505af1158015610b7c573d6000803e3d6000fd5b50505050610bc0610bad84610b9f64e8d4a5100085611c8390919063ffffffff16565b611c9990919063ffffffff16565b8560030154611f8590919063ffffffff16565b8460030181905550438460020181905550505050505b50565b600260015403610c1e576040517f08c379a0000000000000000000000000000000000000000000000000000000008152600401610c15906128f0565b60405180910390fd5b6002600181905550600060068281548110610c3c57610c3b612910565b5b9060005260206000209060050201905060006007600084815260200190815260200160002060003373ffffffffffffffffffffffffffffffffffffffff1673ffffffffffffffffffffffffffffffffffffffff16815260200190815260200160002090506000816000015490506000826000018190555060008260010181905550610d0c33828560000160009054906101000a900473ffffffffffffffffffffffffffffffffffffffff1673ffffffffffffffffffffffffffffffffffffffff16611eff9092919063ffffffff16565b833373ffffffffffffffffffffffffffffffffffffffff167fbb757047c2b5f3974fe26b7c10f732e7bce710b0952a71082702781e62ae059583604051610d53919061237e565b60405180910390a35050506001808190555050565b6000600680549050905060005b81811015610d9757610d86816108d7565b80610d9090612a45565b9050610d75565b5050565b610da3611c7b565b73ffffffffffffffffffffffffffffffffffffffff16610dc1611375565b73ffffffffffffffffffffffffffffffffffffffff1614610e17576040517f08c379a0000000000000000000000000000000000000000000000000000000008152600401610e0e90612884565b60405180910390fd5b610e216000611f9b565b565b610e2b611c7b565b73ffffffffffffffffffffffffffffffffffffffff16610e49611375565b73ffffffffffffffffffffffffffffffffffffffff1614610e9f576040517f08c379a0000000000000000000000000000000000000000000000000000000008152600401610e9690612884565b60405180910390fd5b8260001515600a60008373ffffffffffffffffffffffffffffffffffffffff1673ffffffffffffffffffffffffffffffffffffffff16815260200190815260200160002060009054906101000a900460ff16151514610f33576040517f08c379a0000000000000000000000000000000000000000000000000000000008152600401610f2a90612ad9565b60405180910390fd5b6127108361ffff161115610f7c576040517f08c379a0000000000000000000000000000000000000000000000000000000008152600401610f7390612b6b565b60405180910390fd5b8115610f8b57610f8a610d68565b5b60006009544311610f9e57600954610fa0565b435b9050610fb786600854611f8590919063ffffffff16565b6008819055506001600a60008773ffffffffffffffffffffffffffffffffffffffff1673ffffffffffffffffffffffffffffffffffffffff16815260200190815260200160002060006101000a81548160ff02191690831515021790555060066040518060a001604052808773ffffffffffffffffffffffffffffffffffffffff168152602001888152602001838152602001600081526020018661ffff16815250908060018154018082558091505060019003906000526020600020906005020160009091909190915060008201518160000160006101000a81548173ffffffffffffffffffffffffffffffffffffffff021916908373ffffffffffffffffffffffffffffffffffffffff16021790555060208201518160010155604082015181600201556060820151816003015560808201518160040160006101000a81548161ffff021916908361ffff1602179055505050505050505050565b600560009054906101000a900473ffffffffffffffffffffffffffffffffffffffff1673ffffffffffffffffffffffffffffffffffffffff163373ffffffffffffffffffffffffffffffffffffffff16146111a4576040517f08c379a000000000000000000000000000000000000000000000000000000000815260040161119b90612bd7565b60405180910390fd5b80600560006101000a81548173ffffffffffffffffffffffffffffffffffffffff021916908373ffffffffffffffffffffffffffffffffffffffff1602179055508073ffffffffffffffffffffffffffffffffffffffff163373ffffffffffffffffffffffffffffffffffffffff167fd44190acf9d04bdb5d3a1aafff7e6dee8b40b93dfb8c5d3f0eea4b9f4539c3f760405160405180910390a350565b600181565b600360009054906101000a900473ffffffffffffffffffffffffffffffffffffffff1673ffffffffffffffffffffffffffffffffffffffff163373ffffffffffffffffffffffffffffffffffffffff16146112d7576040517f08c379a00000000000000000000000000000000000000000000000000000000081526004016112ce90612c43565b60405180910390fd5b80600360006101000a81548173ffffffffffffffffffffffffffffffffffffffff021916908373ffffffffffffffffffffffffffffffffffffffff1602179055508073ffffffffffffffffffffffffffffffffffffffff163373ffffffffffffffffffffffffffffffffffffffff167f618c54559e94f1499a808aad71ee8729f8e74e8c48e979616328ce493a1a52e760405160405180910390a350565b60008060009054906101000a900473ffffffffffffffffffffffffffffffffffffffff16905090565b60006113c660016113b88585611caf90919063ffffffff16565b611c8390919063ffffffff16565b905092915050565b6007602052816000526040600020602052806000526040600020600091509150508060000154908060010154905082565b60045481565b600260009054906101000a900473ffffffffffffffffffffffffffffffffffffffff1681565b600a6020528060005260406000206000915054906101000a900460ff1681565b600360009054906101000a900473ffffffffffffffffffffffffffffffffffffffff1681565b611479611c7b565b73ffffffffffffffffffffffffffffffffffffffff16611497611375565b73ffffffffffffffffffffffffffffffffffffffff16146114ed576040517f08c379a00000000000000000000000000000000000000000000000000000000081526004016114e490612884565b60405180910390fd5b6127108261ffff161115611536576040517f08c379a000000000000000000000000000000000000000000000000000000000815260040161152d90612cd5565b60405180910390fd5b801561154557611544610d68565b5b61159183611583600687815481106115605761155f612910565b5b906000526020600020906005020160010154600854611caf90919063ffffffff16565b611f8590919063ffffffff16565b60088190555082600685815481106115ac576115ab612910565b5b90600052602060002090600502016001018190555081600685815481106115d6576115d5612910565b5b906000526020600020906005020160040160006101000a81548161ffff021916908361ffff16021790555050505050565b60026001540361164c576040517f08c379a0000000000000000000000000000000000000000000000000000000008152600401611643906128f0565b60405180910390fd5b600260018190555060006006838154811061166a57611669612910565b5b9060005260206000209060050201905060006007600085815260200190815260200160002060003373ffffffffffffffffffffffffffffffffffffffff1673ffffffffffffffffffffffffffffffffffffffff16815260200190815260200160002090506116d7846108d7565b60008160000154111561174657600061172e826001015461172064e8d4a5100061171287600301548760000154611c8390919063ffffffff16565b611c9990919063ffffffff16565b611caf90919063ffffffff16565b90506000811115611744576117433382611cc5565b5b505b60008311156118c9576117a03330858560000160009054906101000a900473ffffffffffffffffffffffffffffffffffffffff1673ffffffffffffffffffffffffffffffffffffffff1661205f909392919063ffffffff16565b60008260040160009054906101000a900461ffff1661ffff1611156118a85760006117fe6127106117f08560040160009054906101000a900461ffff1661ffff1687611c8390919063ffffffff16565b611c9990919063ffffffff16565b9050611871600560009054906101000a900473ffffffffffffffffffffffffffffffffffffffff16828560000160009054906101000a900473ffffffffffffffffffffffffffffffffffffffff1673ffffffffffffffffffffffffffffffffffffffff16611eff9092919063ffffffff16565b61189a8161188c868560000154611f8590919063ffffffff16565b611caf90919063ffffffff16565b8260000181905550506118c8565b6118bf838260000154611f8590919063ffffffff16565b81600001819055505b5b6118fb64e8d4a510006118ed84600301548460000154611c8390919063ffffffff16565b611c9990919063ffffffff16565b8160010181905550833373ffffffffffffffffffffffffffffffffffffffff167f90890809c654f11d6e72a28fa60149770a0d11ec6c92319d6ceb2bb0a4ea1a158560405161194a919061237e565b60405180910390a35050600180819055505050565b611967611c7b565b73ffffffffffffffffffffffffffffffffffffffff16611985611375565b73ffffffffffffffffffffffffffffffffffffffff16146119db576040517f08c379a00000000000000000000000000000000000000000000000000000000081526004016119d290612884565b60405180910390fd5b600073ffffffffffffffffffffffffffffffffffffffff168173ffffffffffffffffffffffffffffffffffffffff1603611a4a576040517f08c379a0000000000000000000000000000000000000000000000000000000008152600401611a4190612d67565b60405180910390fd5b611a5381611f9b565b50565b60008060068481548110611a6d57611a6c612910565b5b9060005260206000209060050201905060006007600086815260200190815260200160002060008573ffffffffffffffffffffffffffffffffffffffff1673ffffffffffffffffffffffffffffffffffffffff168152602001908152602001600020905060008260030154905060008360000160009054906101000a900473ffffffffffffffffffffffffffffffffffffffff1673ffffffffffffffffffffffffffffffffffffffff166370a08231306040518263ffffffff1660e01b8152600401611b399190612507565b602060405180830381865afa158015611b56573d6000803e3d6000fd5b505050506040513d601f19601f82011682018060405250810190611b7a91906129c0565b9050836002015443118015611b90575060008114155b15611c2b576000611ba585600201544361139e565b90506000611be8600854611bda8860010154611bcc60045487611c8390919063ffffffff16565b611c8390919063ffffffff16565b611c9990919063ffffffff16565b9050611c26611c1784611c0964e8d4a5100085611c8390919063ffffffff16565b611c9990919063ffffffff16565b85611f8590919063ffffffff16565b935050505b611c6f8360010154611c6164e8d4a51000611c53868860000154611c8390919063ffffffff16565b611c9990919063ffffffff16565b611caf90919063ffffffff16565b94505050505092915050565b600033905090565b60008183611c919190612d87565b905092915050565b60008183611ca79190612e10565b905092915050565b60008183611cbd9190612e41565b905092915050565b6000600260009054906101000a900473ffffffffffffffffffffffffffffffffffffffff1673ffffffffffffffffffffffffffffffffffffffff166370a08231306040518263ffffffff1660e01b8152600401611d229190612507565b602060405180830381865afa158015611d3f573d6000803e3d6000fd5b505050506040513d601f19601f82011682018060405250810190611d6391906129c0565b9050600081831115611e1657600260009054906101000a900473ffffffffffffffffffffffffffffffffffffffff1673ffffffffffffffffffffffffffffffffffffffff1663a9059cbb85846040518363ffffffff1660e01b8152600401611dcc9291906129ed565b6020604051808303816000875af1158015611deb573d6000803e3d6000fd5b505050506040513d601f19601f82011682018060405250810190611e0f9190612e8a565b9050611eb9565b600260009054906101000a900473ffffffffffffffffffffffffffffffffffffffff1673ffffffffffffffffffffffffffffffffffffffff1663a9059cbb85856040518363ffffffff1660e01b8152600401611e739291906129ed565b6020604051808303816000875af1158015611e92573d6000803e3d6000fd5b505050506040513d601f19601f82011682018060405250810190611eb69190612e8a565b90505b80611ef9576040517f08c379a0000000000000000000000000000000000000000000000000000000008152600401611ef090612f03565b60405180910390fd5b50505050565b611f808363a9059cbb60e01b8484604051602401611f1e9291906129ed565b604051602081830303815290604052907bffffffffffffffffffffffffffffffffffffffffffffffffffffffff19166020820180517bffffffffffffffffffffffffffffffffffffffffffffffffffffffff83818316178352505050506120e8565b505050565b60008183611f939190612f23565b905092915050565b60008060009054906101000a900473ffffffffffffffffffffffffffffffffffffffff169050816000806101000a81548173ffffffffffffffffffffffffffffffffffffffff021916908373ffffffffffffffffffffffffffffffffffffffff1602179055508173ffffffffffffffffffffffffffffffffffffffff168173ffffffffffffffffffffffffffffffffffffffff167f8be0079c531659141344cd1fd0a4f28419497f9722a3daafe3b4186f6b6457e060405160405180910390a35050565b6120e2846323b872dd60e01b85858560405160240161208093929190612f79565b604051602081830303815290604052907bffffffffffffffffffffffffffffffffffffffffffffffffffffffff19166020820180517bffffffffffffffffffffffffffffffffffffffffffffffffffffffff83818316178352505050506120e8565b50505050565b600061214a826040518060400160405280602081526020017f5361666542455032303a206c6f772d6c6576656c2063616c6c206661696c65648152508573ffffffffffffffffffffffffffffffffffffffff166121af9092919063ffffffff16565b90506000815111156121aa578080602001905181019061216a9190612e8a565b6121a9576040517f08c379a00000000000000000000000000000000000000000000000000000000081526004016121a090613022565b60405180910390fd5b5b505050565b60606121be84846000856121c7565b90509392505050565b60608247101561220c576040517f08c379a0000000000000000000000000000000000000000000000000000000008152600401612203906130b4565b60405180910390fd5b612215856122db565b612254576040517f08c379a000000000000000000000000000000000000000000000000000000000815260040161224b90613120565b60405180910390fd5b6000808673ffffffffffffffffffffffffffffffffffffffff16858760405161227d91906131ba565b60006040518083038185875af1925050503d80600081146122ba576040519150601f19603f3d011682016040523d82523d6000602084013e6122bf565b606091505b50915091506122cf8282866122fe565b92505050949350505050565b6000808273ffffffffffffffffffffffffffffffffffffffff163b119050919050565b6060831561230e5782905061235e565b6000835111156123215782518084602001fd5b816040517f08c379a00000000000000000000000000000000000000000000000000000000081526004016123559190613226565b60405180910390fd5b9392505050565b6000819050919050565b61237881612365565b82525050565b6000602082019050612393600083018461236f565b92915050565b600080fd5b6123a781612365565b81146123b257600080fd5b50565b6000813590506123c48161239e565b92915050565b6000602082840312156123e0576123df612399565b5b60006123ee848285016123b5565b91505092915050565b600073ffffffffffffffffffffffffffffffffffffffff82169050919050565b6000819050919050565b600061243c612437612432846123f7565b612417565b6123f7565b9050919050565b600061244e82612421565b9050919050565b600061246082612443565b9050919050565b61247081612455565b82525050565b600061ffff82169050919050565b61248d81612476565b82525050565b600060a0820190506124a86000830188612467565b6124b5602083018761236f565b6124c2604083018661236f565b6124cf606083018561236f565b6124dc6080830184612484565b9695505050505050565b60006124f1826123f7565b9050919050565b612501816124e6565b82525050565b600060208201905061251c60008301846124f8565b92915050565b6000806040838503121561253957612538612399565b5b6000612547858286016123b5565b9250506020612558858286016123b5565b9150509250929050565b600061256d826124e6565b9050919050565b61257d81612562565b811461258857600080fd5b50565b60008135905061259a81612574565b92915050565b6125a981612476565b81146125b457600080fd5b50565b6000813590506125c6816125a0565b92915050565b60008115159050919050565b6125e1816125cc565b81146125ec57600080fd5b50565b6000813590506125fe816125d8565b92915050565b6000806000806080858703121561261e5761261d612399565b5b600061262c878288016123b5565b945050602061263d8782880161258b565b935050604061264e878288016125b7565b925050606061265f878288016125ef565b91505092959194509250565b612674816124e6565b811461267f57600080fd5b50565b6000813590506126918161266b565b92915050565b6000602082840312156126ad576126ac612399565b5b60006126bb84828501612682565b91505092915050565b600080604083850312156126db576126da612399565b5b60006126e9858286016123b5565b92505060206126fa85828601612682565b9150509250929050565b6000604082019050612719600083018561236f565b612726602083018461236f565b9392505050565b600061273882612443565b9050919050565b6127488161272d565b82525050565b6000602082019050612763600083018461273f565b92915050565b60006020828403121561277f5761277e612399565b5b600061278d8482850161258b565b91505092915050565b61279f816125cc565b82525050565b60006020820190506127ba6000830184612796565b92915050565b600080600080608085870312156127da576127d9612399565b5b60006127e8878288016123b5565b94505060206127f9878288016123b5565b935050604061280a878288016125b7565b925050606061281b878288016125ef565b91505092959194509250565b600082825260208201905092915050565b7f4f776e61626c653a2063616c6c6572206973206e6f7420746865206f776e6572600082015250565b600061286e602083612827565b915061287982612838565b602082019050919050565b6000602082019050818103600083015261289d81612861565b9050919050565b7f5265656e7472616e637947756172643a207265656e7472616e742063616c6c00600082015250565b60006128da601f83612827565b91506128e5826128a4565b602082019050919050565b60006020820190508181036000830152612909816128cd565b9050919050565b7f4e487b7100000000000000000000000000000000000000000000000000000000600052603260045260246000fd5b7f77697468647261773a206e6f7420676f6f640000000000000000000000000000600082015250565b6000612975601283612827565b91506129808261293f565b602082019050919050565b600060208201905081810360008301526129a481612968565b9050919050565b6000815190506129ba8161239e565b92915050565b6000602082840312156129d6576129d5612399565b5b60006129e4848285016129ab565b91505092915050565b6000604082019050612a0260008301856124f8565b612a0f602083018461236f565b9392505050565b7f4e487b7100000000000000000000000000000000000000000000000000000000600052601160045260246000fd5b6000612a5082612365565b91507fffffffffffffffffffffffffffffffffffffffffffffffffffffffffffffffff8203612a8257612a81612a16565b5b600182019050919050565b7f6e6f6e4475706c6963617465643a206475706c69636174656400000000000000600082015250565b6000612ac3601983612827565b9150612ace82612a8d565b602082019050919050565b60006020820190508181036000830152612af281612ab6565b9050919050565b7f6164643a20696e76616c6964206465706f73697420666565206261736973207060008201527f6f696e7473000000000000000000000000000000000000000000000000000000602082015250565b6000612b55602583612827565b9150612b6082612af9565b604082019050919050565b60006020820190508181036000830152612b8481612b48565b9050919050565b7f736574466565416464726573733a20464f5242494444454e0000000000000000600082015250565b6000612bc1601883612827565b9150612bcc82612b8b565b602082019050919050565b60006020820190508181036000830152612bf081612bb4565b9050919050565b7f6465763a207775743f0000000000000000000000000000000000000000000000600082015250565b6000612c2d600983612827565b9150612c3882612bf7565b602082019050919050565b60006020820190508181036000830152612c5c81612c20565b9050919050565b7f7365743a20696e76616c6964206465706f73697420666565206261736973207060008201527f6f696e7473000000000000000000000000000000000000000000000000000000602082015250565b6000612cbf602583612827565b9150612cca82612c63565b604082019050919050565b60006020820190508181036000830152612cee81612cb2565b9050919050565b7f4f776e61626c653a206e6577206f776e657220697320746865207a65726f206160008201527f6464726573730000000000000000000000000000000000000000000000000000602082015250565b6000612d51602683612827565b9150612d5c82612cf5565b604082019050919050565b60006020820190508181036000830152612d8081612d44565b9050919050565b6000612d9282612365565b9150612d9d83612365565b9250817fffffffffffffffffffffffffffffffffffffffffffffffffffffffffffffffff0483118215151615612dd657612dd5612a16565b5b828202905092915050565b7f4e487b7100000000000000000000000000000000000000000000000000000000600052601260045260246000fd5b6000612e1b82612365565b9150612e2683612365565b925082612e3657612e35612de1565b5b828204905092915050565b6000612e4c82612365565b9150612e5783612365565b925082821015612e6a57612e69612a16565b5b828203905092915050565b600081519050612e84816125d8565b92915050565b600060208284031215612ea057612e9f612399565b5b6000612eae84828501612e75565b91505092915050565b7f736166654567675472616e736665723a207472616e73666572206661696c6564600082015250565b6000612eed602083612827565b9150612ef882612eb7565b602082019050919050565b60006020820190508181036000830152612f1c81612ee0565b9050919050565b6000612f2e82612365565b9150612f3983612365565b9250827fffffffffffffffffffffffffffffffffffffffffffffffffffffffffffffffff03821115612f6e57612f6d612a16565b5b828201905092915050565b6000606082019050612f8e60008301866124f8565b612f9b60208301856124f8565b612fa8604083018461236f565b949350505050565b7f5361666542455032303a204245503230206f7065726174696f6e20646964206e60008201527f6f74207375636365656400000000000000000000000000000000000000000000602082015250565b600061300c602a83612827565b915061301782612fb0565b604082019050919050565b6000602082019050818103600083015261303b81612fff565b9050919050565b7f416464726573733a20696e73756666696369656e742062616c616e636520666f60008201527f722063616c6c0000000000000000000000000000000000000000000000000000602082015250565b600061309e602683612827565b91506130a982613042565b604082019050919050565b600060208201905081810360008301526130cd81613091565b9050919050565b7f416464726573733a2063616c6c20746f206e6f6e2d636f6e7472616374000000600082015250565b600061310a601d83612827565b9150613115826130d4565b602082019050919050565b60006020820190508181036000830152613139816130fd565b9050919050565b600081519050919050565b600081905092915050565b60005b83811015613174578082015181840152602081019050613159565b83811115613183576000848401525b50505050565b600061319482613140565b61319e818561314b565b93506131ae818560208601613156565b80840191505092915050565b60006131c68284613189565b915081905092915050565b600081519050919050565b6000601f19601f8301169050919050565b60006131f8826131d1565b6132028185612827565b9350613212818560208601613156565b61321b816131dc565b840191505092915050565b6000602082019050818103600083015261324081846131ed565b90509291505056fea264697066735822122020842cba361bcba27dcfb486b65b8e776f00a53a3835ad750f2a8233b60e58ac64736f6c634300080d0033",
  "immutableReferences": {},
  "source": "// SPDX-License-Identifier: MIT\r\n\r\npragma solidity >=0.6.12 < 0.9.0;\r\n\r\nimport \"@openzeppelin/contracts/utils/math/SafeMath.sol\";\r\nimport \"./libs/IBEP20.sol\";\r\nimport \"./libs/SafeBEP20.sol\";\r\nimport \"@openzeppelin/contracts/access/Ownable.sol\";\r\nimport \"@openzeppelin/contracts/security/ReentrancyGuard.sol\";\r\n\r\nimport \"./EggToken.sol\";\r\n\r\n// MasterChef is the master of Egg. He can make Egg and he is a fair guy.\r\n//\r\n// Note that it's ownable and the owner wields tremendous power. The ownership\r\n// will be transferred to a governance smart contract once EGG is sufficiently\r\n// distributed and the community can show to govern itself.\r\n//\r\n// Have fun reading it. Hopefully it's bug-free. God bless.\r\ncontract MasterChefV2 is Ownable, ReentrancyGuard {\r\n    using SafeMath for uint256;\r\n    using SafeBEP20 for IBEP20;\r\n\r\n    // Info of each user.\r\n    struct UserInfo {\r\n        uint256 amount;         // How many LP tokens the user has provided.\r\n        uint256 rewardDebt;     // Reward debt. See explanation below.\r\n        //\r\n        // We do some fancy math here. Basically, any point in time, the amount of EGGs\r\n        // entitled to a user but is pending to be distributed is:\r\n        //\r\n        //   pending reward = (user.amount * pool.accEggPerShare) - user.rewardDebt\r\n        //\r\n        // Whenever a user deposits or withdraws LP tokens to a pool. Here's what happens:\r\n        //   1. The pool's `accEggPerShare` (and `lastRewardBlock`) gets updated.\r\n        //   2. User receives the pending reward sent to his/her address.\r\n        //   3. User's `amount` gets updated.\r\n        //   4. User's `rewardDebt` gets updated.\r\n    }\r\n\r\n    // Info of each pool.\r\n    struct PoolInfo {\r\n        IBEP20 lpToken;           // Address of LP token contract.\r\n        uint256 allocPoint;       // How many allocation points assigned to this pool. EGGs to distribute per block.\r\n        uint256 lastRewardBlock;  // Last block number that EGGs distribution occurs.\r\n        uint256 accEggPerShare;   // Accumulated EGGs per share, times 1e12. See below.\r\n        uint16 depositFeeBP;      // Deposit fee in basis points\r\n    }\r\n\r\n    // The EGG TOKEN!\r\n    EggToken public egg;\r\n    // Dev address.\r\n    address public devaddr;\r\n    // EGG tokens created per block.\r\n    uint256 public eggPerBlock;\r\n    // Bonus muliplier for early egg makers.\r\n    uint256 public constant BONUS_MULTIPLIER = 1;\r\n    // Deposit Fee address\r\n    address public feeAddress;\r\n\r\n    // Info of each pool.\r\n    PoolInfo[] public poolInfo;\r\n    // Info of each user that stakes LP tokens.\r\n    mapping(uint256 => mapping(address => UserInfo)) public userInfo;\r\n    // Total allocation points. Must be the sum of all allocation points in all pools.\r\n    uint256 public totalAllocPoint = 0;\r\n    // The block number when EGG mining starts.\r\n    uint256 public startBlock;\r\n\r\n    event Deposit(address indexed user, uint256 indexed pid, uint256 amount);\r\n    event Withdraw(address indexed user, uint256 indexed pid, uint256 amount);\r\n    event EmergencyWithdraw(address indexed user, uint256 indexed pid, uint256 amount);\r\n    event SetFeeAddress(address indexed user, address indexed newAddress);\r\n    event SetDevAddress(address indexed user, address indexed newAddress);\r\n    event UpdateEmissionRate(address indexed user, uint256 goosePerBlock);\r\n\r\n    constructor(\r\n        EggToken _egg,\r\n        address _devaddr,\r\n        address _feeAddress,\r\n        uint256 _eggPerBlock,\r\n        uint256 _startBlock\r\n    ) {\r\n        egg = _egg;\r\n        devaddr = _devaddr;\r\n        feeAddress = _feeAddress;\r\n        eggPerBlock = _eggPerBlock;\r\n        startBlock = _startBlock;\r\n    }\r\n\r\n    function poolLength() external view returns (uint256) {\r\n        return poolInfo.length;\r\n    }\r\n\r\n    mapping(IBEP20 => bool) public poolExistence;\r\n    modifier nonDuplicated(IBEP20 _lpToken) {\r\n        require(poolExistence[_lpToken] == false, \"nonDuplicated: duplicated\");\r\n        _;\r\n    }\r\n\r\n    // Add a new lp to the pool. Can only be called by the owner.\r\n    function add(uint256 _allocPoint, IBEP20 _lpToken, uint16 _depositFeeBP, bool _withUpdate) public onlyOwner nonDuplicated(_lpToken) {\r\n        require(_depositFeeBP <= 10000, \"add: invalid deposit fee basis points\");\r\n        if (_withUpdate) {\r\n            massUpdatePools();\r\n        }\r\n        uint256 lastRewardBlock = block.number > startBlock ? block.number : startBlock;\r\n        totalAllocPoint = totalAllocPoint.add(_allocPoint);\r\n        poolExistence[_lpToken] = true;\r\n        poolInfo.push(PoolInfo({\r\n        lpToken : _lpToken,\r\n        allocPoint : _allocPoint,\r\n        lastRewardBlock : lastRewardBlock,\r\n        accEggPerShare : 0,\r\n        depositFeeBP : _depositFeeBP\r\n        }));\r\n    }\r\n\r\n    // Update the given pool's EGG allocation point and deposit fee. Can only be called by the owner.\r\n    function set(uint256 _pid, uint256 _allocPoint, uint16 _depositFeeBP, bool _withUpdate) public onlyOwner {\r\n        require(_depositFeeBP <= 10000, \"set: invalid deposit fee basis points\");\r\n        if (_withUpdate) {\r\n            massUpdatePools();\r\n        }\r\n        totalAllocPoint = totalAllocPoint.sub(poolInfo[_pid].allocPoint).add(_allocPoint);\r\n        poolInfo[_pid].allocPoint = _allocPoint;\r\n        poolInfo[_pid].depositFeeBP = _depositFeeBP;\r\n    }\r\n\r\n    // Return reward multiplier over the given _from to _to block.\r\n    function getMultiplier(uint256 _from, uint256 _to) public pure returns (uint256) {\r\n        return _to.sub(_from).mul(BONUS_MULTIPLIER);\r\n    }\r\n\r\n    // View function to see pending EGGs on frontend.\r\n    function pendingEgg(uint256 _pid, address _user) external view returns (uint256) {\r\n        PoolInfo storage pool = poolInfo[_pid];\r\n        UserInfo storage user = userInfo[_pid][_user];\r\n        uint256 accEggPerShare = pool.accEggPerShare;\r\n        uint256 lpSupply = pool.lpToken.balanceOf(address(this));\r\n        if (block.number > pool.lastRewardBlock && lpSupply != 0) {\r\n            uint256 multiplier = getMultiplier(pool.lastRewardBlock, block.number);\r\n            uint256 eggReward = multiplier.mul(eggPerBlock).mul(pool.allocPoint).div(totalAllocPoint);\r\n            accEggPerShare = accEggPerShare.add(eggReward.mul(1e12).div(lpSupply));\r\n        }\r\n        return user.amount.mul(accEggPerShare).div(1e12).sub(user.rewardDebt);\r\n    }\r\n\r\n    // Update reward variables for all pools. Be careful of gas spending!\r\n    function massUpdatePools() public {\r\n        uint256 length = poolInfo.length;\r\n        for (uint256 pid = 0; pid < length; ++pid) {\r\n            updatePool(pid);\r\n        }\r\n    }\r\n\r\n    // Update reward variables of the given pool to be up-to-date.\r\n    function updatePool(uint256 _pid) public {\r\n        PoolInfo storage pool = poolInfo[_pid];\r\n        if (block.number <= pool.lastRewardBlock) {\r\n            return;\r\n        }\r\n        uint256 lpSupply = pool.lpToken.balanceOf(address(this));\r\n        if (lpSupply == 0 || pool.allocPoint == 0) {\r\n            pool.lastRewardBlock = block.number;\r\n            return;\r\n        }\r\n        uint256 multiplier = getMultiplier(pool.lastRewardBlock, block.number);\r\n        uint256 eggReward = multiplier.mul(eggPerBlock).mul(pool.allocPoint).div(totalAllocPoint);\r\n        egg.mint(devaddr, eggReward.div(10));\r\n        egg.mint(address(this), eggReward);\r\n        pool.accEggPerShare = pool.accEggPerShare.add(eggReward.mul(1e12).div(lpSupply));\r\n        pool.lastRewardBlock = block.number;\r\n    }\r\n\r\n    // Deposit LP tokens to MasterChef for EGG allocation.\r\n    function deposit(uint256 _pid, uint256 _amount) public nonReentrant {\r\n        PoolInfo storage pool = poolInfo[_pid];\r\n        UserInfo storage user = userInfo[_pid][msg.sender];\r\n        updatePool(_pid);\r\n        if (user.amount > 0) {\r\n            uint256 pending = user.amount.mul(pool.accEggPerShare).div(1e12).sub(user.rewardDebt);\r\n            if (pending > 0) {\r\n                safeEggTransfer(msg.sender, pending);\r\n            }\r\n        }\r\n        if (_amount > 0) {\r\n            pool.lpToken.safeTransferFrom(address(msg.sender), address(this), _amount);\r\n            if (pool.depositFeeBP > 0) {\r\n                uint256 depositFee = _amount.mul(pool.depositFeeBP).div(10000);\r\n                pool.lpToken.safeTransfer(feeAddress, depositFee);\r\n                user.amount = user.amount.add(_amount).sub(depositFee);\r\n            } else {\r\n                user.amount = user.amount.add(_amount);\r\n            }\r\n        }\r\n        user.rewardDebt = user.amount.mul(pool.accEggPerShare).div(1e12);\r\n        emit Deposit(msg.sender, _pid, _amount);\r\n    }\r\n\r\n    // Withdraw LP tokens from MasterChef.\r\n    function withdraw(uint256 _pid, uint256 _amount) public nonReentrant {\r\n        PoolInfo storage pool = poolInfo[_pid];\r\n        UserInfo storage user = userInfo[_pid][msg.sender];\r\n        require(user.amount >= _amount, \"withdraw: not good\");\r\n        updatePool(_pid);\r\n        uint256 pending = user.amount.mul(pool.accEggPerShare).div(1e12).sub(user.rewardDebt);\r\n        if (pending > 0) {\r\n            safeEggTransfer(msg.sender, pending);\r\n        }\r\n        if (_amount > 0) {\r\n            user.amount = user.amount.sub(_amount);\r\n            pool.lpToken.safeTransfer(address(msg.sender), _amount);\r\n        }\r\n        user.rewardDebt = user.amount.mul(pool.accEggPerShare).div(1e12);\r\n        emit Withdraw(msg.sender, _pid, _amount);\r\n    }\r\n\r\n    // Withdraw without caring about rewards. EMERGENCY ONLY.\r\n    function emergencyWithdraw(uint256 _pid) public nonReentrant {\r\n        PoolInfo storage pool = poolInfo[_pid];\r\n        UserInfo storage user = userInfo[_pid][msg.sender];\r\n        uint256 amount = user.amount;\r\n        user.amount = 0;\r\n        user.rewardDebt = 0;\r\n        pool.lpToken.safeTransfer(address(msg.sender), amount);\r\n        emit EmergencyWithdraw(msg.sender, _pid, amount);\r\n    }\r\n\r\n    // Safe egg transfer function, just in case if rounding error causes pool to not have enough EGGs.\r\n    function safeEggTransfer(address _to, uint256 _amount) internal {\r\n        uint256 eggBal = egg.balanceOf(address(this));\r\n        bool transferSuccess = false;\r\n        if (_amount > eggBal) {\r\n            transferSuccess = egg.transfer(_to, eggBal);\r\n        } else {\r\n            transferSuccess = egg.transfer(_to, _amount);\r\n        }\r\n        require(transferSuccess, \"safeEggTransfer: transfer failed\");\r\n    }\r\n\r\n    // Update dev address by the previous dev.\r\n    function dev(address _devaddr) public {\r\n        require(msg.sender == devaddr, \"dev: wut?\");\r\n        devaddr = _devaddr;\r\n        emit SetDevAddress(msg.sender, _devaddr);\r\n    }\r\n\r\n    function setFeeAddress(address _feeAddress) public {\r\n        require(msg.sender == feeAddress, \"setFeeAddress: FORBIDDEN\");\r\n        feeAddress = _feeAddress;\r\n        emit SetFeeAddress(msg.sender, _feeAddress);\r\n    }\r\n\r\n    //Pancake has to add hidden dummy pools inorder to alter the emission, here we make it simple and transparent to all.\r\n    function updateEmissionRate(uint256 _eggPerBlock) public onlyOwner {\r\n        massUpdatePools();\r\n        eggPerBlock = _eggPerBlock;\r\n        emit UpdateEmissionRate(msg.sender, _eggPerBlock);\r\n    }\r\n}",
  "sourcePath": "C:\\Users\\pc\\Desktop\\test\\Goose\\contracts\\MasterChefV2.sol",
  "compiler": {
    "name": "solc",
    "version": "0.8.13+commit.abaa5c0e.Emscripten.clang"
  },
  "schemaVersion": "3.4.7",
  "updatedAt": "2022-04-15T14:29:24.441Z",
  "devdoc": {
    "kind": "dev",
    "methods": {
      "owner()": {
        "details": "Returns the address of the current owner."
      },
      "renounceOwnership()": {
        "details": "Leaves the contract without owner. It will not be possible to call `onlyOwner` functions anymore. Can only be called by the current owner. NOTE: Renouncing ownership will leave the contract without an owner, thereby removing any functionality that is only available to the owner."
      },
      "transferOwnership(address)": {
        "details": "Transfers ownership of the contract to a new account (`newOwner`). Can only be called by the current owner."
      }
    },
    "version": 1
  },
  "userdoc": {
    "kind": "user",
    "methods": {},
    "version": 1
  }
}