{
  "contractName": "Timelock",
  "abi": [
    {
      "inputs": [
        {
          "internalType": "address",
          "name": "admin_",
          "type": "address"
        },
        {
          "internalType": "uint256",
          "name": "delay_",
          "type": "uint256"
        }
      ],
      "stateMutability": "nonpayable",
      "type": "constructor"
    },
    {
      "anonymous": false,
      "inputs": [
        {
          "indexed": true,
          "internalType": "bytes32",
          "name": "txHash",
          "type": "bytes32"
        },
        {
          "indexed": true,
          "internalType": "address",
          "name": "target",
          "type": "address"
        },
        {
          "indexed": false,
          "internalType": "uint256",
          "name": "value",
          "type": "uint256"
        },
        {
          "indexed": false,
          "internalType": "string",
          "name": "signature",
          "type": "string"
        },
        {
          "indexed": false,
          "internalType": "bytes",
          "name": "data",
          "type": "bytes"
        },
        {
          "indexed": false,
          "internalType": "uint256",
          "name": "eta",
          "type": "uint256"
        }
      ],
      "name": "CancelTransaction",
      "type": "event"
    },
    {
      "anonymous": false,
      "inputs": [
        {
          "indexed": true,
          "internalType": "bytes32",
          "name": "txHash",
          "type": "bytes32"
        },
        {
          "indexed": true,
          "internalType": "address",
          "name": "target",
          "type": "address"
        },
        {
          "indexed": false,
          "internalType": "uint256",
          "name": "value",
          "type": "uint256"
        },
        {
          "indexed": false,
          "internalType": "string",
          "name": "signature",
          "type": "string"
        },
        {
          "indexed": false,
          "internalType": "bytes",
          "name": "data",
          "type": "bytes"
        },
        {
          "indexed": false,
          "internalType": "uint256",
          "name": "eta",
          "type": "uint256"
        }
      ],
      "name": "ExecuteTransaction",
      "type": "event"
    },
    {
      "anonymous": false,
      "inputs": [
        {
          "indexed": true,
          "internalType": "address",
          "name": "newAdmin",
          "type": "address"
        }
      ],
      "name": "NewAdmin",
      "type": "event"
    },
    {
      "anonymous": false,
      "inputs": [
        {
          "indexed": true,
          "internalType": "uint256",
          "name": "newDelay",
          "type": "uint256"
        }
      ],
      "name": "NewDelay",
      "type": "event"
    },
    {
      "anonymous": false,
      "inputs": [
        {
          "indexed": true,
          "internalType": "address",
          "name": "newPendingAdmin",
          "type": "address"
        }
      ],
      "name": "NewPendingAdmin",
      "type": "event"
    },
    {
      "anonymous": false,
      "inputs": [
        {
          "indexed": true,
          "internalType": "bytes32",
          "name": "txHash",
          "type": "bytes32"
        },
        {
          "indexed": true,
          "internalType": "address",
          "name": "target",
          "type": "address"
        },
        {
          "indexed": false,
          "internalType": "uint256",
          "name": "value",
          "type": "uint256"
        },
        {
          "indexed": false,
          "internalType": "string",
          "name": "signature",
          "type": "string"
        },
        {
          "indexed": false,
          "internalType": "bytes",
          "name": "data",
          "type": "bytes"
        },
        {
          "indexed": false,
          "internalType": "uint256",
          "name": "eta",
          "type": "uint256"
        }
      ],
      "name": "QueueTransaction",
      "type": "event"
    },
    {
      "inputs": [],
      "name": "GRACE_PERIOD",
      "outputs": [
        {
          "internalType": "uint256",
          "name": "",
          "type": "uint256"
        }
      ],
      "stateMutability": "view",
      "type": "function"
    },
    {
      "inputs": [],
      "name": "MAXIMUM_DELAY",
      "outputs": [
        {
          "internalType": "uint256",
          "name": "",
          "type": "uint256"
        }
      ],
      "stateMutability": "view",
      "type": "function"
    },
    {
      "inputs": [],
      "name": "MINIMUM_DELAY",
      "outputs": [
        {
          "internalType": "uint256",
          "name": "",
          "type": "uint256"
        }
      ],
      "stateMutability": "view",
      "type": "function"
    },
    {
      "inputs": [],
      "name": "admin",
      "outputs": [
        {
          "internalType": "address",
          "name": "",
          "type": "address"
        }
      ],
      "stateMutability": "view",
      "type": "function"
    },
    {
      "inputs": [],
      "name": "admin_initialized",
      "outputs": [
        {
          "internalType": "bool",
          "name": "",
          "type": "bool"
        }
      ],
      "stateMutability": "view",
      "type": "function"
    },
    {
      "inputs": [],
      "name": "delay",
      "outputs": [
        {
          "internalType": "uint256",
          "name": "",
          "type": "uint256"
        }
      ],
      "stateMutability": "view",
      "type": "function"
    },
    {
      "inputs": [],
      "name": "pendingAdmin",
      "outputs": [
        {
          "internalType": "address",
          "name": "",
          "type": "address"
        }
      ],
      "stateMutability": "view",
      "type": "function"
    },
    {
      "inputs": [
        {
          "internalType": "bytes32",
          "name": "",
          "type": "bytes32"
        }
      ],
      "name": "queuedTransactions",
      "outputs": [
        {
          "internalType": "bool",
          "name": "",
          "type": "bool"
        }
      ],
      "stateMutability": "view",
      "type": "function"
    },
    {
      "stateMutability": "payable",
      "type": "receive"
    },
    {
      "inputs": [
        {
          "internalType": "uint256",
          "name": "delay_",
          "type": "uint256"
        }
      ],
      "name": "setDelay",
      "outputs": [],
      "stateMutability": "nonpayable",
      "type": "function"
    },
    {
      "inputs": [],
      "name": "acceptAdmin",
      "outputs": [],
      "stateMutability": "nonpayable",
      "type": "function"
    },
    {
      "inputs": [
        {
          "internalType": "address",
          "name": "pendingAdmin_",
          "type": "address"
        }
      ],
      "name": "setPendingAdmin",
      "outputs": [],
      "stateMutability": "nonpayable",
      "type": "function"
    },
    {
      "inputs": [
        {
          "internalType": "address",
          "name": "target",
          "type": "address"
        },
        {
          "internalType": "uint256",
          "name": "value",
          "type": "uint256"
        },
        {
          "internalType": "string",
          "name": "signature",
          "type": "string"
        },
        {
          "internalType": "bytes",
          "name": "data",
          "type": "bytes"
        },
        {
          "internalType": "uint256",
          "name": "eta",
          "type": "uint256"
        }
      ],
      "name": "queueTransaction",
      "outputs": [
        {
          "internalType": "bytes32",
          "name": "",
          "type": "bytes32"
        }
      ],
      "stateMutability": "nonpayable",
      "type": "function"
    },
    {
      "inputs": [
        {
          "internalType": "address",
          "name": "target",
          "type": "address"
        },
        {
          "internalType": "uint256",
          "name": "value",
          "type": "uint256"
        },
        {
          "internalType": "string",
          "name": "signature",
          "type": "string"
        },
        {
          "internalType": "bytes",
          "name": "data",
          "type": "bytes"
        },
        {
          "internalType": "uint256",
          "name": "eta",
          "type": "uint256"
        }
      ],
      "name": "cancelTransaction",
      "outputs": [],
      "stateMutability": "nonpayable",
      "type": "function"
    },
    {
      "inputs": [
        {
          "internalType": "address",
          "name": "target",
          "type": "address"
        },
        {
          "internalType": "uint256",
          "name": "value",
          "type": "uint256"
        },
        {
          "internalType": "string",
          "name": "signature",
          "type": "string"
        },
        {
          "internalType": "bytes",
          "name": "data",
          "type": "bytes"
        },
        {
          "internalType": "uint256",
          "name": "eta",
          "type": "uint256"
        }
      ],
      "name": "executeTransaction",
      "outputs": [
        {
          "internalType": "bytes",
          "name": "",
          "type": "bytes"
        }
      ],
      "stateMutability": "payable",
      "type": "function"
    }
  ],
  "bytecode": "0x60806040523480156200001157600080fd5b5060405162002275380380620022758339818101604052810190620000379190620001d7565b6154608110156200007f576040517f08c379a00000000000000000000000000000000000000000000000000000000081526004016200007690620002a5565b60405180910390fd5b62278d00811115620000c8576040517f08c379a0000000000000000000000000000000000000000000000000000000008152600401620000bf906200033d565b60405180910390fd5b816000806101000a81548173ffffffffffffffffffffffffffffffffffffffff021916908373ffffffffffffffffffffffffffffffffffffffff160217905550806002819055506000600360006101000a81548160ff02191690831515021790555050506200035f565b600080fd5b600073ffffffffffffffffffffffffffffffffffffffff82169050919050565b6000620001648262000137565b9050919050565b620001768162000157565b81146200018257600080fd5b50565b60008151905062000196816200016b565b92915050565b6000819050919050565b620001b1816200019c565b8114620001bd57600080fd5b50565b600081519050620001d181620001a6565b92915050565b60008060408385031215620001f157620001f062000132565b5b6000620002018582860162000185565b92505060206200021485828601620001c0565b9150509250929050565b600082825260208201905092915050565b7f54696d656c6f636b3a3a636f6e7374727563746f723a2044656c6179206d757360008201527f7420657863656564206d696e696d756d2064656c61792e000000000000000000602082015250565b60006200028d6037836200021e565b91506200029a826200022f565b604082019050919050565b60006020820190508181036000830152620002c0816200027e565b9050919050565b7f54696d656c6f636b3a3a636f6e7374727563746f723a2044656c6179206d757360008201527f74206e6f7420657863656564206d6178696d756d2064656c61792e0000000000602082015250565b600062000325603b836200021e565b91506200033282620002c7565b604082019050919050565b60006020820190508181036000830152620003588162000316565b9050919050565b611f06806200036f6000396000f3fe6080604052600436106100e15760003560e01c80636fc1f57e1161007f578063c1a287e211610059578063c1a287e21461029a578063e177246e146102c5578063f2b06537146102ee578063f851a4401461032b576100e8565b80636fc1f57e146102195780637d645fab14610244578063b1b43ae51461026f576100e8565b80633a66f901116100bb5780633a66f9011461015f5780634dd18bf51461019c578063591fcdfe146101c55780636a42b8f8146101ee576100e8565b80630825f38f146100ed5780630e18b6811461011d5780632678224714610134576100e8565b366100e857005b600080fd5b61010760048036038101906101029190611164565b610356565b604051610114919061129f565b60405180910390f35b34801561012957600080fd5b506101326106a2565b005b34801561014057600080fd5b50610149610819565b60405161015691906112d0565b60405180910390f35b34801561016b57600080fd5b5061018660048036038101906101819190611164565b61083f565b6040516101939190611304565b60405180910390f35b3480156101a857600080fd5b506101c360048036038101906101be919061131f565b6109ef565b005b3480156101d157600080fd5b506101ec60048036038101906101e79190611164565b610bca565b005b3480156101fa57600080fd5b50610203610d14565b604051610210919061135b565b60405180910390f35b34801561022557600080fd5b5061022e610d1a565b60405161023b9190611391565b60405180910390f35b34801561025057600080fd5b50610259610d2d565b604051610266919061135b565b60405180910390f35b34801561027b57600080fd5b50610284610d34565b604051610291919061135b565b60405180910390f35b3480156102a657600080fd5b506102af610d3a565b6040516102bc919061135b565b60405180910390f35b3480156102d157600080fd5b506102ec60048036038101906102e791906113ac565b610d41565b005b3480156102fa57600080fd5b5061031560048036038101906103109190611405565b610e73565b6040516103229190611391565b60405180910390f35b34801561033757600080fd5b50610340610e93565b60405161034d91906112d0565b60405180910390f35b606060008054906101000a900473ffffffffffffffffffffffffffffffffffffffff1673ffffffffffffffffffffffffffffffffffffffff163373ffffffffffffffffffffffffffffffffffffffff16146103e6576040517f08c379a00000000000000000000000000000000000000000000000000000000081526004016103dd906114b5565b60405180910390fd5b60008686868686604051602001610401959493929190611519565b6040516020818303038152906040528051906020012090506004600082815260200190815260200160002060009054906101000a900460ff16610479576040517f08c379a0000000000000000000000000000000000000000000000000000000008152600401610470906115ec565b60405180910390fd5b82610482610eb7565b10156104c3576040517f08c379a00000000000000000000000000000000000000000000000000000000081526004016104ba906116a4565b60405180910390fd5b6104d96212750084610ebf90919063ffffffff16565b6104e1610eb7565b1115610522576040517f08c379a000000000000000000000000000000000000000000000000000000000815260040161051990611736565b60405180910390fd5b60006004600083815260200190815260200160002060006101000a81548160ff021916908315150217905550606060008651036105615784905061058d565b85805190602001208560405160200161057b9291906117df565b60405160208183030381529060405290505b6000808973ffffffffffffffffffffffffffffffffffffffff1689846040516105b69190611807565b60006040518083038185875af1925050503d80600081146105f3576040519150601f19603f3d011682016040523d82523d6000602084013e6105f8565b606091505b50915091508161063d576040517f08c379a000000000000000000000000000000000000000000000000000000000815260040161063490611890565b60405180910390fd5b8973ffffffffffffffffffffffffffffffffffffffff16847fa560e3198060a2f10670c1ec5b403077ea6ae93ca8de1c32b451dc1a943cd6e78b8b8b8b60405161068a94939291906118b0565b60405180910390a38094505050505095945050505050565b600160009054906101000a900473ffffffffffffffffffffffffffffffffffffffff1673ffffffffffffffffffffffffffffffffffffffff163373ffffffffffffffffffffffffffffffffffffffff1614610732576040517f08c379a000000000000000000000000000000000000000000000000000000000815260040161072990611975565b60405180910390fd5b336000806101000a81548173ffffffffffffffffffffffffffffffffffffffff021916908373ffffffffffffffffffffffffffffffffffffffff1602179055506000600160006101000a81548173ffffffffffffffffffffffffffffffffffffffff021916908373ffffffffffffffffffffffffffffffffffffffff16021790555060008054906101000a900473ffffffffffffffffffffffffffffffffffffffff1673ffffffffffffffffffffffffffffffffffffffff167f71614071b88dee5e0b2ae578a9dd7b2ebbe9ae832ba419dc0242cd065a290b6c60405160405180910390a2565b600160009054906101000a900473ffffffffffffffffffffffffffffffffffffffff1681565b60008060009054906101000a900473ffffffffffffffffffffffffffffffffffffffff1673ffffffffffffffffffffffffffffffffffffffff163373ffffffffffffffffffffffffffffffffffffffff16146108d0576040517f08c379a00000000000000000000000000000000000000000000000000000000081526004016108c790611a07565b60405180910390fd5b6108ec6002546108de610eb7565b610ebf90919063ffffffff16565b82101561092e576040517f08c379a000000000000000000000000000000000000000000000000000000000815260040161092590611abf565b60405180910390fd5b60008686868686604051602001610949959493929190611519565b60405160208183030381529060405280519060200120905060016004600083815260200190815260200160002060006101000a81548160ff0219169083151502179055508673ffffffffffffffffffffffffffffffffffffffff16817f76e2796dc3a81d57b0e8504b647febcbeeb5f4af818e164f11eef8131a6a763f888888886040516109da94939291906118b0565b60405180910390a38091505095945050505050565b600360009054906101000a900460ff1615610a77573073ffffffffffffffffffffffffffffffffffffffff163373ffffffffffffffffffffffffffffffffffffffff1614610a72576040517f08c379a0000000000000000000000000000000000000000000000000000000008152600401610a6990611b51565b60405180910390fd5b610b21565b60008054906101000a900473ffffffffffffffffffffffffffffffffffffffff1673ffffffffffffffffffffffffffffffffffffffff163373ffffffffffffffffffffffffffffffffffffffff1614610b05576040517f08c379a0000000000000000000000000000000000000000000000000000000008152600401610afc90611be3565b60405180910390fd5b6001600360006101000a81548160ff0219169083151502179055505b80600160006101000a81548173ffffffffffffffffffffffffffffffffffffffff021916908373ffffffffffffffffffffffffffffffffffffffff160217905550600160009054906101000a900473ffffffffffffffffffffffffffffffffffffffff1673ffffffffffffffffffffffffffffffffffffffff167f69d78e38a01985fbb1462961809b4b2d65531bc93b2b94037f3334b82ca4a75660405160405180910390a250565b60008054906101000a900473ffffffffffffffffffffffffffffffffffffffff1673ffffffffffffffffffffffffffffffffffffffff163373ffffffffffffffffffffffffffffffffffffffff1614610c58576040517f08c379a0000000000000000000000000000000000000000000000000000000008152600401610c4f90611c75565b60405180910390fd5b60008585858585604051602001610c73959493929190611519565b60405160208183030381529060405280519060200120905060006004600083815260200190815260200160002060006101000a81548160ff0219169083151502179055508573ffffffffffffffffffffffffffffffffffffffff16817f2fffc091a501fd91bfbff27141450d3acb40fb8e6d8382b243ec7a812a3aaf8787878787604051610d0494939291906118b0565b60405180910390a3505050505050565b60025481565b600360009054906101000a900460ff1681565b62278d0081565b61546081565b6212750081565b3073ffffffffffffffffffffffffffffffffffffffff163373ffffffffffffffffffffffffffffffffffffffff1614610daf576040517f08c379a0000000000000000000000000000000000000000000000000000000008152600401610da690611d07565b60405180910390fd5b615460811015610df4576040517f08c379a0000000000000000000000000000000000000000000000000000000008152600401610deb90611d99565b60405180910390fd5b62278d00811115610e3a576040517f08c379a0000000000000000000000000000000000000000000000000000000008152600401610e3190611e2b565b60405180910390fd5b806002819055506002547f948b1f6a42ee138b7e34058ba85a37f716d55ff25ff05a763f15bed6a04c8d2c60405160405180910390a250565b60046020528060005260406000206000915054906101000a900460ff1681565b60008054906101000a900473ffffffffffffffffffffffffffffffffffffffff1681565b600042905090565b60008183610ecd9190611e7a565b905092915050565b6000604051905090565b600080fd5b600080fd5b600073ffffffffffffffffffffffffffffffffffffffff82169050919050565b6000610f1482610ee9565b9050919050565b610f2481610f09565b8114610f2f57600080fd5b50565b600081359050610f4181610f1b565b92915050565b6000819050919050565b610f5a81610f47565b8114610f6557600080fd5b50565b600081359050610f7781610f51565b92915050565b600080fd5b600080fd5b6000601f19601f8301169050919050565b7f4e487b7100000000000000000000000000000000000000000000000000000000600052604160045260246000fd5b610fd082610f87565b810181811067ffffffffffffffff82111715610fef57610fee610f98565b5b80604052505050565b6000611002610ed5565b905061100e8282610fc7565b919050565b600067ffffffffffffffff82111561102e5761102d610f98565b5b61103782610f87565b9050602081019050919050565b82818337600083830152505050565b600061106661106184611013565b610ff8565b90508281526020810184848401111561108257611081610f82565b5b61108d848285611044565b509392505050565b600082601f8301126110aa576110a9610f7d565b5b81356110ba848260208601611053565b91505092915050565b600067ffffffffffffffff8211156110de576110dd610f98565b5b6110e782610f87565b9050602081019050919050565b6000611107611102846110c3565b610ff8565b90508281526020810184848401111561112357611122610f82565b5b61112e848285611044565b509392505050565b600082601f83011261114b5761114a610f7d565b5b813561115b8482602086016110f4565b91505092915050565b600080600080600060a086880312156111805761117f610edf565b5b600061118e88828901610f32565b955050602061119f88828901610f68565b945050604086013567ffffffffffffffff8111156111c0576111bf610ee4565b5b6111cc88828901611095565b935050606086013567ffffffffffffffff8111156111ed576111ec610ee4565b5b6111f988828901611136565b925050608061120a88828901610f68565b9150509295509295909350565b600081519050919050565b600082825260208201905092915050565b60005b83811015611251578082015181840152602081019050611236565b83811115611260576000848401525b50505050565b600061127182611217565b61127b8185611222565b935061128b818560208601611233565b61129481610f87565b840191505092915050565b600060208201905081810360008301526112b98184611266565b905092915050565b6112ca81610f09565b82525050565b60006020820190506112e560008301846112c1565b92915050565b6000819050919050565b6112fe816112eb565b82525050565b600060208201905061131960008301846112f5565b92915050565b60006020828403121561133557611334610edf565b5b600061134384828501610f32565b91505092915050565b61135581610f47565b82525050565b6000602082019050611370600083018461134c565b92915050565b60008115159050919050565b61138b81611376565b82525050565b60006020820190506113a66000830184611382565b92915050565b6000602082840312156113c2576113c1610edf565b5b60006113d084828501610f68565b91505092915050565b6113e2816112eb565b81146113ed57600080fd5b50565b6000813590506113ff816113d9565b92915050565b60006020828403121561141b5761141a610edf565b5b6000611429848285016113f0565b91505092915050565b600082825260208201905092915050565b7f54696d656c6f636b3a3a657865637574655472616e73616374696f6e3a20436160008201527f6c6c206d75737420636f6d652066726f6d2061646d696e2e0000000000000000602082015250565b600061149f603883611432565b91506114aa82611443565b604082019050919050565b600060208201905081810360008301526114ce81611492565b9050919050565b600081519050919050565b60006114eb826114d5565b6114f58185611432565b9350611505818560208601611233565b61150e81610f87565b840191505092915050565b600060a08201905061152e60008301886112c1565b61153b602083018761134c565b818103604083015261154d81866114e0565b905081810360608301526115618185611266565b9050611570608083018461134c565b9695505050505050565b7f54696d656c6f636b3a3a657865637574655472616e73616374696f6e3a20547260008201527f616e73616374696f6e206861736e2774206265656e207175657565642e000000602082015250565b60006115d6603d83611432565b91506115e18261157a565b604082019050919050565b60006020820190508181036000830152611605816115c9565b9050919050565b7f54696d656c6f636b3a3a657865637574655472616e73616374696f6e3a20547260008201527f616e73616374696f6e206861736e2774207375727061737365642074696d652060208201527f6c6f636b2e000000000000000000000000000000000000000000000000000000604082015250565b600061168e604583611432565b91506116998261160c565b606082019050919050565b600060208201905081810360008301526116bd81611681565b9050919050565b7f54696d656c6f636b3a3a657865637574655472616e73616374696f6e3a20547260008201527f616e73616374696f6e206973207374616c652e00000000000000000000000000602082015250565b6000611720603383611432565b915061172b826116c4565b604082019050919050565b6000602082019050818103600083015261174f81611713565b9050919050565b60007fffffffff0000000000000000000000000000000000000000000000000000000082169050919050565b6000819050919050565b61179d61179882611756565b611782565b82525050565b600081905092915050565b60006117b982611217565b6117c381856117a3565b93506117d3818560208601611233565b80840191505092915050565b60006117eb828561178c565b6004820191506117fb82846117ae565b91508190509392505050565b600061181382846117ae565b915081905092915050565b7f54696d656c6f636b3a3a657865637574655472616e73616374696f6e3a20547260008201527f616e73616374696f6e20657865637574696f6e2072657665727465642e000000602082015250565b600061187a603d83611432565b91506118858261181e565b604082019050919050565b600060208201905081810360008301526118a98161186d565b9050919050565b60006080820190506118c5600083018761134c565b81810360208301526118d781866114e0565b905081810360408301526118eb8185611266565b90506118fa606083018461134c565b95945050505050565b7f54696d656c6f636b3a3a61636365707441646d696e3a2043616c6c206d75737460008201527f20636f6d652066726f6d2070656e64696e6741646d696e2e0000000000000000602082015250565b600061195f603883611432565b915061196a82611903565b604082019050919050565b6000602082019050818103600083015261198e81611952565b9050919050565b7f54696d656c6f636b3a3a71756575655472616e73616374696f6e3a2043616c6c60008201527f206d75737420636f6d652066726f6d2061646d696e2e00000000000000000000602082015250565b60006119f1603683611432565b91506119fc82611995565b604082019050919050565b60006020820190508181036000830152611a20816119e4565b9050919050565b7f54696d656c6f636b3a3a71756575655472616e73616374696f6e3a204573746960008201527f6d6174656420657865637574696f6e20626c6f636b206d75737420736174697360208201527f66792064656c61792e0000000000000000000000000000000000000000000000604082015250565b6000611aa9604983611432565b9150611ab482611a27565b606082019050919050565b60006020820190508181036000830152611ad881611a9c565b9050919050565b7f54696d656c6f636b3a3a73657450656e64696e6741646d696e3a2043616c6c2060008201527f6d75737420636f6d652066726f6d2054696d656c6f636b2e0000000000000000602082015250565b6000611b3b603883611432565b9150611b4682611adf565b604082019050919050565b60006020820190508181036000830152611b6a81611b2e565b9050919050565b7f54696d656c6f636b3a3a73657450656e64696e6741646d696e3a20466972737460008201527f2063616c6c206d75737420636f6d652066726f6d2061646d696e2e0000000000602082015250565b6000611bcd603b83611432565b9150611bd882611b71565b604082019050919050565b60006020820190508181036000830152611bfc81611bc0565b9050919050565b7f54696d656c6f636b3a3a63616e63656c5472616e73616374696f6e3a2043616c60008201527f6c206d75737420636f6d652066726f6d2061646d696e2e000000000000000000602082015250565b6000611c5f603783611432565b9150611c6a82611c03565b604082019050919050565b60006020820190508181036000830152611c8e81611c52565b9050919050565b7f54696d656c6f636b3a3a73657444656c61793a2043616c6c206d75737420636f60008201527f6d652066726f6d2054696d656c6f636b2e000000000000000000000000000000602082015250565b6000611cf1603183611432565b9150611cfc82611c95565b604082019050919050565b60006020820190508181036000830152611d2081611ce4565b9050919050565b7f54696d656c6f636b3a3a73657444656c61793a2044656c6179206d757374206560008201527f7863656564206d696e696d756d2064656c61792e000000000000000000000000602082015250565b6000611d83603483611432565b9150611d8e82611d27565b604082019050919050565b60006020820190508181036000830152611db281611d76565b9050919050565b7f54696d656c6f636b3a3a73657444656c61793a2044656c6179206d757374206e60008201527f6f7420657863656564206d6178696d756d2064656c61792e0000000000000000602082015250565b6000611e15603883611432565b9150611e2082611db9565b604082019050919050565b60006020820190508181036000830152611e4481611e08565b9050919050565b7f4e487b7100000000000000000000000000000000000000000000000000000000600052601160045260246000fd5b6000611e8582610f47565b9150611e9083610f47565b9250827fffffffffffffffffffffffffffffffffffffffffffffffffffffffffffffffff03821115611ec557611ec4611e4b565b5b82820190509291505056fea2646970667358221220846eeaf260ac011bd86b91f4451a24509c607b29b3e607de96d59b2a453d0c9d64736f6c634300080d0033",
  "immutableReferences": {},
  "source": "// SPDX-License-Identifier: MIT\r\npragma solidity ^0.8.13;\r\n\r\nimport \"@openzeppelin/contracts/utils/math/SafeMath.sol\";\r\n\r\ncontract Timelock {\r\n    using SafeMath for uint;\r\n\r\n    event NewAdmin(address indexed newAdmin);\r\n    event NewPendingAdmin(address indexed newPendingAdmin);\r\n    event NewDelay(uint indexed newDelay);\r\n    event CancelTransaction(bytes32 indexed txHash, address indexed target, uint value, string signature,  bytes data, uint eta);\r\n    event ExecuteTransaction(bytes32 indexed txHash, address indexed target, uint value, string signature,  bytes data, uint eta);\r\n    event QueueTransaction(bytes32 indexed txHash, address indexed target, uint value, string signature, bytes data, uint eta);\r\n\r\n    uint public constant GRACE_PERIOD = 14 days;\r\n    uint public constant MINIMUM_DELAY = 6 hours;\r\n    uint public constant MAXIMUM_DELAY = 30 days;\r\n\r\n    address public admin;\r\n    address public pendingAdmin;\r\n    uint public delay;\r\n    bool public admin_initialized;\r\n\r\n    mapping (bytes32 => bool) public queuedTransactions;\r\n\r\n\r\n    constructor(address admin_, uint delay_) {\r\n        require(delay_ >= MINIMUM_DELAY, \"Timelock::constructor: Delay must exceed minimum delay.\");\r\n        require(delay_ <= MAXIMUM_DELAY, \"Timelock::constructor: Delay must not exceed maximum delay.\");\r\n\r\n        admin = admin_;\r\n        delay = delay_;\r\n        admin_initialized = false;\r\n    }\r\n\r\n    // XXX: function() external payable { }\r\n    receive() external payable { }\r\n\r\n    function setDelay(uint delay_) public {\r\n        require(msg.sender == address(this), \"Timelock::setDelay: Call must come from Timelock.\");\r\n        require(delay_ >= MINIMUM_DELAY, \"Timelock::setDelay: Delay must exceed minimum delay.\");\r\n        require(delay_ <= MAXIMUM_DELAY, \"Timelock::setDelay: Delay must not exceed maximum delay.\");\r\n        delay = delay_;\r\n\r\n        emit NewDelay(delay);\r\n    }\r\n\r\n    function acceptAdmin() public {\r\n        require(msg.sender == pendingAdmin, \"Timelock::acceptAdmin: Call must come from pendingAdmin.\");\r\n        admin = msg.sender;\r\n        pendingAdmin = address(0);\r\n\r\n        emit NewAdmin(admin);\r\n    }\r\n\r\n    function setPendingAdmin(address pendingAdmin_) public {\r\n        // allows one time setting of admin for deployment purposes\r\n        if (admin_initialized) {\r\n            require(msg.sender == address(this), \"Timelock::setPendingAdmin: Call must come from Timelock.\");\r\n        } else {\r\n            require(msg.sender == admin, \"Timelock::setPendingAdmin: First call must come from admin.\");\r\n            admin_initialized = true;\r\n        }\r\n        pendingAdmin = pendingAdmin_;\r\n\r\n        emit NewPendingAdmin(pendingAdmin);\r\n    }\r\n\r\n    function queueTransaction(address target, uint value, string memory signature, bytes memory data, uint eta) public returns (bytes32) {\r\n        require(msg.sender == admin, \"Timelock::queueTransaction: Call must come from admin.\");\r\n        require(eta >= getBlockTimestamp().add(delay), \"Timelock::queueTransaction: Estimated execution block must satisfy delay.\");\r\n\r\n        bytes32 txHash = keccak256(abi.encode(target, value, signature, data, eta));\r\n        queuedTransactions[txHash] = true;\r\n\r\n        emit QueueTransaction(txHash, target, value, signature, data, eta);\r\n        return txHash;\r\n    }\r\n\r\n    function cancelTransaction(address target, uint value, string memory signature, bytes memory data, uint eta) public {\r\n        require(msg.sender == admin, \"Timelock::cancelTransaction: Call must come from admin.\");\r\n\r\n        bytes32 txHash = keccak256(abi.encode(target, value, signature, data, eta));\r\n        queuedTransactions[txHash] = false;\r\n\r\n        emit CancelTransaction(txHash, target, value, signature, data, eta);\r\n    }\r\n\r\n    function executeTransaction(address target, uint value, string memory signature, bytes memory data, uint eta) public payable returns (bytes memory) {\r\n        require(msg.sender == admin, \"Timelock::executeTransaction: Call must come from admin.\");\r\n\r\n        bytes32 txHash = keccak256(abi.encode(target, value, signature, data, eta));\r\n        require(queuedTransactions[txHash], \"Timelock::executeTransaction: Transaction hasn't been queued.\");\r\n        require(getBlockTimestamp() >= eta, \"Timelock::executeTransaction: Transaction hasn't surpassed time lock.\");\r\n        require(getBlockTimestamp() <= eta.add(GRACE_PERIOD), \"Timelock::executeTransaction: Transaction is stale.\");\r\n\r\n        queuedTransactions[txHash] = false;\r\n\r\n        bytes memory callData;\r\n\r\n        if (bytes(signature).length == 0) {\r\n            callData = data;\r\n        } else {\r\n            callData = abi.encodePacked(bytes4(keccak256(bytes(signature))), data);\r\n        }\r\n\r\n        // solium-disable-next-line security/no-call-value\r\n        (bool success, bytes memory returnData) = target.call{value: value}(callData);\r\n        require(success, \"Timelock::executeTransaction: Transaction execution reverted.\");\r\n\r\n        emit ExecuteTransaction(txHash, target, value, signature, data, eta);\r\n\r\n        return returnData;\r\n    }\r\n\r\n    function getBlockTimestamp() internal view returns (uint) {\r\n        // solium-disable-next-line security/no-block-members\r\n        return block.timestamp;\r\n    }\r\n}",
  "sourcePath": "C:\\Users\\pc\\Desktop\\test\\Goose\\contracts\\Timelock.sol",
  "compiler": {
    "name": "solc",
    "version": "0.8.13+commit.abaa5c0e.Emscripten.clang"
  },
  "schemaVersion": "3.4.7",
  "updatedAt": "2022-04-15T14:29:24.461Z",
  "devdoc": {
    "kind": "dev",
    "methods": {},
    "version": 1
  },
  "userdoc": {
    "kind": "user",
    "methods": {},
    "version": 1
  }
}